{
  "contractName": "Marketplace",
  "abi": [
    {
      "inputs": [
        {
          "internalType": "address",
          "name": "_operator",
          "type": "address"
        }
      ],
      "stateMutability": "nonpayable",
      "type": "constructor"
    },
    {
      "anonymous": false,
      "inputs": [
        {
          "indexed": true,
          "internalType": "address",
          "name": "beneficiary",
          "type": "address"
        },
        {
          "indexed": false,
          "internalType": "uint256",
          "name": "amount",
          "type": "uint256"
        }
      ],
      "name": "BalanceWithdrawn",
      "type": "event"
    },
    {
      "anonymous": false,
      "inputs": [
        {
          "indexed": true,
          "internalType": "bytes32",
          "name": "offeringId",
          "type": "bytes32"
        },
        {
          "indexed": true,
          "internalType": "address",
          "name": "buyer",
          "type": "address"
        }
      ],
      "name": "OfferingClosed",
      "type": "event"
    },
    {
      "anonymous": false,
      "inputs": [
        {
          "indexed": true,
          "internalType": "bytes32",
          "name": "offeringId",
          "type": "bytes32"
        },
        {
          "indexed": true,
          "internalType": "address",
          "name": "hostContract",
          "type": "address"
        },
        {
          "indexed": true,
          "internalType": "address",
          "name": "offerer",
          "type": "address"
        },
        {
          "indexed": false,
          "internalType": "uint256",
          "name": "tokenId",
          "type": "uint256"
        },
        {
          "indexed": false,
          "internalType": "uint256",
          "name": "price",
          "type": "uint256"
        },
        {
          "indexed": false,
          "internalType": "string",
          "name": "uri",
          "type": "string"
        }
      ],
      "name": "OfferingPlaced",
      "type": "event"
    },
    {
      "anonymous": false,
      "inputs": [
        {
          "indexed": false,
          "internalType": "address",
          "name": "previousOperator",
          "type": "address"
        },
        {
          "indexed": false,
          "internalType": "address",
          "name": "newOperator",
          "type": "address"
        }
      ],
      "name": "OperatorChanged",
      "type": "event"
    },
    {
      "inputs": [
        {
          "internalType": "address",
          "name": "_offerer",
          "type": "address"
        },
        {
          "internalType": "address",
          "name": "_hostContract",
          "type": "address"
        },
        {
          "internalType": "uint256",
          "name": "_tokenId",
          "type": "uint256"
        },
        {
          "internalType": "uint256",
          "name": "_price",
          "type": "uint256"
        }
      ],
      "name": "placeOffering",
      "outputs": [],
      "stateMutability": "nonpayable",
      "type": "function"
    },
    {
      "inputs": [
        {
          "internalType": "bytes32",
          "name": "_offeringId",
          "type": "bytes32"
        }
      ],
      "name": "closeOffering",
      "outputs": [],
      "stateMutability": "payable",
      "type": "function",
      "payable": true
    },
    {
      "inputs": [],
      "name": "withdrawBalance",
      "outputs": [],
      "stateMutability": "nonpayable",
      "type": "function"
    },
    {
      "inputs": [
        {
          "internalType": "address",
          "name": "_newOperator",
          "type": "address"
        }
      ],
      "name": "changeOperator",
      "outputs": [],
      "stateMutability": "nonpayable",
      "type": "function"
    },
    {
      "inputs": [
        {
          "internalType": "bytes32",
          "name": "_offeringId",
          "type": "bytes32"
        }
      ],
      "name": "viewOfferingNFT",
      "outputs": [
        {
          "internalType": "address",
          "name": "",
          "type": "address"
        },
        {
          "internalType": "uint256",
          "name": "",
          "type": "uint256"
        },
        {
          "internalType": "uint256",
          "name": "",
          "type": "uint256"
        },
        {
          "internalType": "bool",
          "name": "",
          "type": "bool"
        }
      ],
      "stateMutability": "view",
      "type": "function",
      "constant": true
    },
    {
      "inputs": [
        {
          "internalType": "address",
          "name": "_address",
          "type": "address"
        }
      ],
      "name": "viewBalances",
      "outputs": [
        {
          "internalType": "uint256",
          "name": "",
          "type": "uint256"
        }
      ],
      "stateMutability": "view",
      "type": "function",
      "constant": true
    }
  ],
  "bytecode": "0x60806040523480156200001157600080fd5b50604051620014d4380380620014d48339818101604052810190620000379190620000e8565b806000806101000a81548173ffffffffffffffffffffffffffffffffffffffff021916908373ffffffffffffffffffffffffffffffffffffffff160217905550506200011a565b600080fd5b600073ffffffffffffffffffffffffffffffffffffffff82169050919050565b6000620000b08262000083565b9050919050565b620000c281620000a3565b8114620000ce57600080fd5b50565b600081519050620000e281620000b7565b92915050565b6000602082840312156200010157620001006200007e565b5b60006200011184828501620000d1565b91505092915050565b6113aa806200012a6000396000f3fe6080604052600436106100555760003560e01c806306394c9b1461005a578063330ef231146100835780634b5822b11461009f5780634efa247e146100dc5780635fd8c71014610105578063ec7bca541461011c575b600080fd5b34801561006657600080fd5b50610081600480360381019061007c9190610b4f565b61015c565b005b61009d60048036038101906100989190610bb2565b6102ad565b005b3480156100ab57600080fd5b506100c660048036038101906100c19190610b4f565b61056a565b6040516100d39190610bf8565b60405180910390f35b3480156100e857600080fd5b5061010360048036038101906100fe9190610c3f565b6105b3565b005b34801561011157600080fd5b5061011a61089c565b005b34801561012857600080fd5b50610143600480360381019061013e9190610bb2565b610a3f565b6040516101539493929190610cd0565b60405180910390f35b60008054906101000a900473ffffffffffffffffffffffffffffffffffffffff1673ffffffffffffffffffffffffffffffffffffffff163373ffffffffffffffffffffffffffffffffffffffff16146101ea576040517f08c379a00000000000000000000000000000000000000000000000000000000081526004016101e190610d98565b60405180910390fd5b60008060009054906101000a900473ffffffffffffffffffffffffffffffffffffffff169050336000806101000a81548173ffffffffffffffffffffffffffffffffffffffff021916908373ffffffffffffffffffffffffffffffffffffffff1602179055507fd58299b712891143e76310d5e664c4203c940a67db37cf856bdaa3c5c76a802c8160008054906101000a900473ffffffffffffffffffffffffffffffffffffffff166040516102a1929190610db8565b60405180910390a15050565b6002600082815260200190815260200160002060030154341015610306576040517f08c379a00000000000000000000000000000000000000000000000000000000081526004016102fd90610e2d565b60405180910390fd5b600115156002600083815260200190815260200160002060040160009054906101000a900460ff1615151415610371576040517f08c379a000000000000000000000000000000000000000000000000000000000815260040161036890610e99565b60405180910390fd5b60006002600083815260200190815260200160002060010160009054906101000a900473ffffffffffffffffffffffffffffffffffffffff1690508073ffffffffffffffffffffffffffffffffffffffff166342842e0e6002600085815260200190815260200160002060000160009054906101000a900473ffffffffffffffffffffffffffffffffffffffff163360026000878152602001908152602001600020600201546040518463ffffffff1660e01b815260040161043593929190610eb9565b600060405180830381600087803b15801561044f57600080fd5b505af1158015610463573d6000803e3d6000fd5b5050505060016002600084815260200190815260200160002060040160006101000a81548160ff02191690831515021790555034600360006002600086815260200190815260200160002060000160009054906101000a900473ffffffffffffffffffffffffffffffffffffffff1673ffffffffffffffffffffffffffffffffffffffff1673ffffffffffffffffffffffffffffffffffffffff168152602001908152602001600020600082825461051b9190610f1f565b925050819055503373ffffffffffffffffffffffffffffffffffffffff16827f0cfb1c3841b1ebe2ad43e9d641c358c0d40c4a10fc3c2ee73fd956a2658ed14460405160405180910390a35050565b6000600360008373ffffffffffffffffffffffffffffffffffffffff1673ffffffffffffffffffffffffffffffffffffffff168152602001908152602001600020549050919050565b60008054906101000a900473ffffffffffffffffffffffffffffffffffffffff1673ffffffffffffffffffffffffffffffffffffffff163373ffffffffffffffffffffffffffffffffffffffff1614610641576040517f08c379a000000000000000000000000000000000000000000000000000000000815260040161063890610fe7565b60405180910390fd5b6000600154848460405160200161065a93929190611070565b604051602081830303815290604052805190602001209050846002600083815260200190815260200160002060000160006101000a81548173ffffffffffffffffffffffffffffffffffffffff021916908373ffffffffffffffffffffffffffffffffffffffff160217905550836002600083815260200190815260200160002060010160006101000a81548173ffffffffffffffffffffffffffffffffffffffff021916908373ffffffffffffffffffffffffffffffffffffffff16021790555082600260008381526020019081526020016000206002018190555081600260008381526020019081526020016000206003018190555060018060008282546107649190610f1f565b9250508190555060006002600083815260200190815260200160002060010160009054906101000a900473ffffffffffffffffffffffffffffffffffffffff16905060008173ffffffffffffffffffffffffffffffffffffffff1663c87b56dd866040518263ffffffff1660e01b81526004016107e19190610bf8565b600060405180830381865afa1580156107fe573d6000803e3d6000fd5b505050506040513d6000823e3d601f19601f820116820180604052508101906108279190611217565b90508673ffffffffffffffffffffffffffffffffffffffff168673ffffffffffffffffffffffffffffffffffffffff16847fedb9bcc509764747e9a869005eece6e1a1bf4936195e4454f5f0de1f64a1b95988888660405161088b939291906112a4565b60405180910390a450505050505050565b6000600360003373ffffffffffffffffffffffffffffffffffffffff1673ffffffffffffffffffffffffffffffffffffffff168152602001908152602001600020541161091e576040517f08c379a000000000000000000000000000000000000000000000000000000000815260040161091590611354565b60405180910390fd5b6000600360003373ffffffffffffffffffffffffffffffffffffffff1673ffffffffffffffffffffffffffffffffffffffff1681526020019081526020016000205490503373ffffffffffffffffffffffffffffffffffffffff166108fc829081150290604051600060405180830381858888f193505050501580156109a8573d6000803e3d6000fd5b506000600360003373ffffffffffffffffffffffffffffffffffffffff1673ffffffffffffffffffffffffffffffffffffffff168152602001908152602001600020819055503373ffffffffffffffffffffffffffffffffffffffff167fddc398b321237a8d40ac914388309c2f52a08c134e4dc4ce61e32f57cb7d80f182604051610a349190610bf8565b60405180910390a250565b6000806000806002600086815260200190815260200160002060010160009054906101000a900473ffffffffffffffffffffffffffffffffffffffff16600260008781526020019081526020016000206002015460026000888152602001908152602001600020600301546002600089815260200190815260200160002060040160009054906101000a900460ff1693509350935093509193509193565b6000604051905090565b600080fd5b600080fd5b600073ffffffffffffffffffffffffffffffffffffffff82169050919050565b6000610b1c82610af1565b9050919050565b610b2c81610b11565b8114610b3757600080fd5b50565b600081359050610b4981610b23565b92915050565b600060208284031215610b6557610b64610ae7565b5b6000610b7384828501610b3a565b91505092915050565b6000819050919050565b610b8f81610b7c565b8114610b9a57600080fd5b50565b600081359050610bac81610b86565b92915050565b600060208284031215610bc857610bc7610ae7565b5b6000610bd684828501610b9d565b91505092915050565b6000819050919050565b610bf281610bdf565b82525050565b6000602082019050610c0d6000830184610be9565b92915050565b610c1c81610bdf565b8114610c2757600080fd5b50565b600081359050610c3981610c13565b92915050565b60008060008060808587031215610c5957610c58610ae7565b5b6000610c6787828801610b3a565b9450506020610c7887828801610b3a565b9350506040610c8987828801610c2a565b9250506060610c9a87828801610c2a565b91505092959194509250565b610caf81610b11565b82525050565b60008115159050919050565b610cca81610cb5565b82525050565b6000608082019050610ce56000830187610ca6565b610cf26020830186610be9565b610cff6040830185610be9565b610d0c6060830184610cc1565b95945050505050565b600082825260208201905092915050565b7f6f6e6c7920746865206f70657261746f722063616e206368616e67652074686560008201527f2063757272656e74206f70657261746f72000000000000000000000000000000602082015250565b6000610d82603183610d15565b9150610d8d82610d26565b604082019050919050565b60006020820190508181036000830152610db181610d75565b9050919050565b6000604082019050610dcd6000830185610ca6565b610dda6020830184610ca6565b9392505050565b7f4e6f7420656e6f7567682066756e647320746f20627579000000000000000000600082015250565b6000610e17601783610d15565b9150610e2282610de1565b602082019050919050565b60006020820190508181036000830152610e4681610e0a565b9050919050565b7f4f66666572696e6720697320636c6f7365640000000000000000000000000000600082015250565b6000610e83601283610d15565b9150610e8e82610e4d565b602082019050919050565b60006020820190508181036000830152610eb281610e76565b9050919050565b6000606082019050610ece6000830186610ca6565b610edb6020830185610ca6565b610ee86040830184610be9565b949350505050565b7f4e487b7100000000000000000000000000000000000000000000000000000000600052601160045260246000fd5b6000610f2a82610bdf565b9150610f3583610bdf565b9250827fffffffffffffffffffffffffffffffffffffffffffffffffffffffffffffffff03821115610f6a57610f69610ef0565b5b828201905092915050565b7f4f6e6c79206f70657261746f7220644170702063616e20637265617465206f6660008201527f666572696e677300000000000000000000000000000000000000000000000000602082015250565b6000610fd1602783610d15565b9150610fdc82610f75565b604082019050919050565b6000602082019050818103600083015261100081610fc4565b9050919050565b6000819050919050565b61102261101d82610bdf565b611007565b82525050565b60008160601b9050919050565b600061104082611028565b9050919050565b600061105282611035565b9050919050565b61106a61106582610b11565b611047565b82525050565b600061107c8286611011565b60208201915061108c8285611059565b60148201915061109c8284611011565b602082019150819050949350505050565b600080fd5b600080fd5b6000601f19601f8301169050919050565b7f4e487b7100000000000000000000000000000000000000000000000000000000600052604160045260246000fd5b611100826110b7565b810181811067ffffffffffffffff8211171561111f5761111e6110c8565b5b80604052505050565b6000611132610add565b905061113e82826110f7565b919050565b600067ffffffffffffffff82111561115e5761115d6110c8565b5b611167826110b7565b9050602081019050919050565b60005b83811015611192578082015181840152602081019050611177565b838111156111a1576000848401525b50505050565b60006111ba6111b584611143565b611128565b9050828152602081018484840111156111d6576111d56110b2565b5b6111e1848285611174565b509392505050565b600082601f8301126111fe576111fd6110ad565b5b815161120e8482602086016111a7565b91505092915050565b60006020828403121561122d5761122c610ae7565b5b600082015167ffffffffffffffff81111561124b5761124a610aec565b5b611257848285016111e9565b91505092915050565b600081519050919050565b600061127682611260565b6112808185610d15565b9350611290818560208601611174565b611299816110b7565b840191505092915050565b60006060820190506112b96000830186610be9565b6112c66020830185610be9565b81810360408301526112d8818461126b565b9050949350505050565b7f596f7520646f6e2774206861766520616e792062616c616e636520746f20776960008201527f7468647261770000000000000000000000000000000000000000000000000000602082015250565b600061133e602683610d15565b9150611349826112e2565b604082019050919050565b6000602082019050818103600083015261136d81611331565b905091905056fea2646970667358221220a83cfc7795701c34e117cee3098b4085b283f65779ae0be0b47b4121e9e5168964736f6c634300080a0033",
  "immutableReferences": {},
  "source": "// SPDX-License-Identifier: MIT\npragma solidity 0.8.10;\n\nimport \"../node_modules/@openzeppelin/contracts/token/ERC721/ERC721.sol\";\n\ncontract Marketplace{\n\n    event OfferingPlaced(bytes32 indexed offeringId, address indexed hostContract, address indexed offerer,  uint tokenId, uint price, string uri);\n    event OfferingClosed(bytes32 indexed offeringId, address indexed buyer);\n    event BalanceWithdrawn (address indexed beneficiary, uint amount);\n    event OperatorChanged (address previousOperator, address newOperator);\n\n    address operator;\n    uint offeringNonce;\n\n    struct offering {\n        address offerer;\n        address hostContract;\n        uint tokenId;\n        uint price;\n        bool closed; \n    }\n    \n    mapping (bytes32 => offering) offeringRegistry;\n    mapping (address => uint) balances;\n\n    constructor (address _operator) {\n        operator = _operator;\n    }\n\n    function placeOffering (address _offerer, address _hostContract, uint _tokenId, uint _price) external {\n        require (msg.sender == operator, \"Only operator dApp can create offerings\");\n        bytes32 offeringId = keccak256(abi.encodePacked(offeringNonce, _hostContract, _tokenId));\n        offeringRegistry[offeringId].offerer = _offerer;\n        offeringRegistry[offeringId].hostContract = _hostContract;\n        offeringRegistry[offeringId].tokenId = _tokenId;\n        offeringRegistry[offeringId].price = _price;\n        offeringNonce += 1;\n        ERC721 hostContract = ERC721(offeringRegistry[offeringId].hostContract);\n        string memory uri = hostContract.tokenURI(_tokenId);\n        emit  OfferingPlaced(offeringId, _hostContract, _offerer, _tokenId, _price, uri);\n    }\n    \n    function closeOffering(bytes32 _offeringId) external payable {\n        require(msg.value >= offeringRegistry[_offeringId].price, \"Not enough funds to buy\");\n        require(offeringRegistry[_offeringId].closed != true, \"Offering is closed\");\n        ERC721 hostContract = ERC721(offeringRegistry[_offeringId].hostContract);\n        hostContract.safeTransferFrom(offeringRegistry[_offeringId].offerer, msg.sender, offeringRegistry[_offeringId].tokenId);\n        offeringRegistry[_offeringId].closed = true;\n        balances[offeringRegistry[_offeringId].offerer] += msg.value;\n        emit OfferingClosed(_offeringId, msg.sender);\n    } \n\n    function withdrawBalance() external {\n        require(balances[msg.sender] > 0,\"You don't have any balance to withdraw\");\n        uint amount = balances[msg.sender];\n        payable(msg.sender).transfer(amount);\n        balances[msg.sender] = 0;\n        emit BalanceWithdrawn(msg.sender, amount);\n    }\n\n    function changeOperator(address _newOperator) external {\n        require(msg.sender == operator,\"only the operator can change the current operator\");\n        address previousOperator = operator;\n        operator = msg.sender;\n        emit OperatorChanged(previousOperator, operator);\n    }\n\n    function viewOfferingNFT(bytes32 _offeringId) external view returns (address, uint, uint, bool){\n        return (offeringRegistry[_offeringId].hostContract, offeringRegistry[_offeringId].tokenId, offeringRegistry[_offeringId].price, offeringRegistry[_offeringId].closed);\n    }\n\n    function viewBalances(address _address) external view returns (uint) {\n        return (balances[_address]);\n    }\n\n}",
  "sourcePath": "/Users/igormoscalets/moondoggies/contracts/Marketplace.sol",
  "compiler": {
    "name": "solc",
    "version": "0.8.10+commit.fc410830.Emscripten.clang"
  },
  "schemaVersion": "3.4.3",
  "updatedAt": "2021-11-28T22:35:38.692Z",
  "networkType": "ethereum",
  "devdoc": {
    "kind": "dev",
    "methods": {},
    "version": 1
  },
  "userdoc": {
    "kind": "user",
    "methods": {},
    "version": 1
  }
}