{
  "contractName": "Token",
  "abi": [
    {
      "inputs": [
        {
          "internalType": "string",
          "name": "name",
          "type": "string"
        },
        {
          "internalType": "string",
          "name": "symbol",
          "type": "string"
        }
      ],
      "stateMutability": "nonpayable",
      "type": "constructor"
    },
    {
      "anonymous": false,
      "inputs": [
        {
          "indexed": true,
          "internalType": "address",
          "name": "owner",
          "type": "address"
        },
        {
          "indexed": true,
          "internalType": "address",
          "name": "approved",
          "type": "address"
        },
        {
          "indexed": true,
          "internalType": "uint256",
          "name": "tokenId",
          "type": "uint256"
        }
      ],
      "name": "Approval",
      "type": "event"
    },
    {
      "anonymous": false,
      "inputs": [
        {
          "indexed": true,
          "internalType": "address",
          "name": "owner",
          "type": "address"
        },
        {
          "indexed": true,
          "internalType": "address",
          "name": "operator",
          "type": "address"
        },
        {
          "indexed": false,
          "internalType": "bool",
          "name": "approved",
          "type": "bool"
        }
      ],
      "name": "ApprovalForAll",
      "type": "event"
    },
    {
      "anonymous": false,
      "inputs": [
        {
          "indexed": true,
          "internalType": "address",
          "name": "previousOwner",
          "type": "address"
        },
        {
          "indexed": true,
          "internalType": "address",
          "name": "newOwner",
          "type": "address"
        }
      ],
      "name": "OwnershipTransferred",
      "type": "event"
    },
    {
      "anonymous": false,
      "inputs": [
        {
          "indexed": true,
          "internalType": "address",
          "name": "from",
          "type": "address"
        },
        {
          "indexed": true,
          "internalType": "address",
          "name": "to",
          "type": "address"
        },
        {
          "indexed": true,
          "internalType": "uint256",
          "name": "tokenId",
          "type": "uint256"
        }
      ],
      "name": "Transfer",
      "type": "event"
    },
    {
      "inputs": [
        {
          "internalType": "address",
          "name": "to",
          "type": "address"
        },
        {
          "internalType": "uint256",
          "name": "tokenId",
          "type": "uint256"
        }
      ],
      "name": "approve",
      "outputs": [],
      "stateMutability": "nonpayable",
      "type": "function"
    },
    {
      "inputs": [
        {
          "internalType": "address",
          "name": "owner",
          "type": "address"
        }
      ],
      "name": "balanceOf",
      "outputs": [
        {
          "internalType": "uint256",
          "name": "",
          "type": "uint256"
        }
      ],
      "stateMutability": "view",
      "type": "function",
      "constant": true
    },
    {
      "inputs": [
        {
          "internalType": "uint256",
          "name": "tokenId",
          "type": "uint256"
        }
      ],
      "name": "getApproved",
      "outputs": [
        {
          "internalType": "address",
          "name": "",
          "type": "address"
        }
      ],
      "stateMutability": "view",
      "type": "function",
      "constant": true
    },
    {
      "inputs": [
        {
          "internalType": "address",
          "name": "owner",
          "type": "address"
        },
        {
          "internalType": "address",
          "name": "operator",
          "type": "address"
        }
      ],
      "name": "isApprovedForAll",
      "outputs": [
        {
          "internalType": "bool",
          "name": "",
          "type": "bool"
        }
      ],
      "stateMutability": "view",
      "type": "function",
      "constant": true
    },
    {
      "inputs": [],
      "name": "name",
      "outputs": [
        {
          "internalType": "string",
          "name": "",
          "type": "string"
        }
      ],
      "stateMutability": "view",
      "type": "function",
      "constant": true
    },
    {
      "inputs": [],
      "name": "owner",
      "outputs": [
        {
          "internalType": "address",
          "name": "",
          "type": "address"
        }
      ],
      "stateMutability": "view",
      "type": "function",
      "constant": true
    },
    {
      "inputs": [
        {
          "internalType": "uint256",
          "name": "tokenId",
          "type": "uint256"
        }
      ],
      "name": "ownerOf",
      "outputs": [
        {
          "internalType": "address",
          "name": "",
          "type": "address"
        }
      ],
      "stateMutability": "view",
      "type": "function",
      "constant": true
    },
    {
      "inputs": [],
      "name": "renounceOwnership",
      "outputs": [],
      "stateMutability": "nonpayable",
      "type": "function"
    },
    {
      "inputs": [
        {
          "internalType": "address",
          "name": "from",
          "type": "address"
        },
        {
          "internalType": "address",
          "name": "to",
          "type": "address"
        },
        {
          "internalType": "uint256",
          "name": "tokenId",
          "type": "uint256"
        }
      ],
      "name": "safeTransferFrom",
      "outputs": [],
      "stateMutability": "nonpayable",
      "type": "function"
    },
    {
      "inputs": [
        {
          "internalType": "address",
          "name": "from",
          "type": "address"
        },
        {
          "internalType": "address",
          "name": "to",
          "type": "address"
        },
        {
          "internalType": "uint256",
          "name": "tokenId",
          "type": "uint256"
        },
        {
          "internalType": "bytes",
          "name": "_data",
          "type": "bytes"
        }
      ],
      "name": "safeTransferFrom",
      "outputs": [],
      "stateMutability": "nonpayable",
      "type": "function"
    },
    {
      "inputs": [
        {
          "internalType": "address",
          "name": "operator",
          "type": "address"
        },
        {
          "internalType": "bool",
          "name": "approved",
          "type": "bool"
        }
      ],
      "name": "setApprovalForAll",
      "outputs": [],
      "stateMutability": "nonpayable",
      "type": "function"
    },
    {
      "inputs": [
        {
          "internalType": "bytes4",
          "name": "interfaceId",
          "type": "bytes4"
        }
      ],
      "name": "supportsInterface",
      "outputs": [
        {
          "internalType": "bool",
          "name": "",
          "type": "bool"
        }
      ],
      "stateMutability": "view",
      "type": "function",
      "constant": true
    },
    {
      "inputs": [],
      "name": "symbol",
      "outputs": [
        {
          "internalType": "string",
          "name": "",
          "type": "string"
        }
      ],
      "stateMutability": "view",
      "type": "function",
      "constant": true
    },
    {
      "inputs": [
        {
          "internalType": "uint256",
          "name": "tokenId",
          "type": "uint256"
        }
      ],
      "name": "tokenURI",
      "outputs": [
        {
          "internalType": "string",
          "name": "",
          "type": "string"
        }
      ],
      "stateMutability": "view",
      "type": "function",
      "constant": true
    },
    {
      "inputs": [
        {
          "internalType": "address",
          "name": "from",
          "type": "address"
        },
        {
          "internalType": "address",
          "name": "to",
          "type": "address"
        },
        {
          "internalType": "uint256",
          "name": "tokenId",
          "type": "uint256"
        }
      ],
      "name": "transferFrom",
      "outputs": [],
      "stateMutability": "nonpayable",
      "type": "function"
    },
    {
      "inputs": [
        {
          "internalType": "address",
          "name": "newOwner",
          "type": "address"
        }
      ],
      "name": "transferOwnership",
      "outputs": [],
      "stateMutability": "nonpayable",
      "type": "function"
    },
    {
      "inputs": [
        {
          "internalType": "address",
          "name": "user",
          "type": "address"
        }
      ],
      "name": "getAllTokensForUser",
      "outputs": [
        {
          "internalType": "uint256[]",
          "name": "",
          "type": "uint256[]"
        }
      ],
      "stateMutability": "view",
      "type": "function",
      "constant": true
    },
    {
      "inputs": [
        {
          "internalType": "uint256",
          "name": "tokenId",
          "type": "uint256"
        }
      ],
      "name": "getTokenDetails",
      "outputs": [
        {
          "components": [
            {
              "internalType": "uint8",
              "name": "attack",
              "type": "uint8"
            },
            {
              "internalType": "uint8",
              "name": "adorable",
              "type": "uint8"
            },
            {
              "internalType": "uint8",
              "name": "health",
              "type": "uint8"
            },
            {
              "internalType": "uint8",
              "name": "stamina",
              "type": "uint8"
            }
          ],
          "internalType": "struct Token.MoonDog",
          "name": "",
          "type": "tuple"
        }
      ],
      "stateMutability": "view",
      "type": "function",
      "constant": true
    },
    {
      "inputs": [
        {
          "internalType": "uint8",
          "name": "attack",
          "type": "uint8"
        },
        {
          "internalType": "uint8",
          "name": "adorable",
          "type": "uint8"
        },
        {
          "internalType": "uint8",
          "name": "health",
          "type": "uint8"
        },
        {
          "internalType": "uint8",
          "name": "stamina",
          "type": "uint8"
        }
      ],
      "name": "mint",
      "outputs": [],
      "stateMutability": "nonpayable",
      "type": "function"
    }
  ],
  "bytecode": "0x608060405260006007553480156200001657600080fd5b50604051620035a6380380620035a683398181016040528101906200003c9190620003b5565b818181600090805190602001906200005692919062000168565b5080600190805190602001906200006f92919062000168565b50505062000092620000866200009a60201b60201c565b620000a260201b60201c565b50506200049f565b600033905090565b6000600660009054906101000a900473ffffffffffffffffffffffffffffffffffffffff16905081600660006101000a81548173ffffffffffffffffffffffffffffffffffffffff021916908373ffffffffffffffffffffffffffffffffffffffff1602179055508173ffffffffffffffffffffffffffffffffffffffff168173ffffffffffffffffffffffffffffffffffffffff167f8be0079c531659141344cd1fd0a4f28419497f9722a3daafe3b4186f6b6457e060405160405180910390a35050565b828054620001769062000469565b90600052602060002090601f0160209004810192826200019a5760008555620001e6565b82601f10620001b557805160ff1916838001178555620001e6565b82800160010185558215620001e6579182015b82811115620001e5578251825591602001919060010190620001c8565b5b509050620001f59190620001f9565b5090565b5b8082111562000214576000816000905550600101620001fa565b5090565b6000604051905090565b600080fd5b600080fd5b600080fd5b600080fd5b6000601f19601f8301169050919050565b7f4e487b7100000000000000000000000000000000000000000000000000000000600052604160045260246000fd5b620002818262000236565b810181811067ffffffffffffffff82111715620002a357620002a262000247565b5b80604052505050565b6000620002b862000218565b9050620002c6828262000276565b919050565b600067ffffffffffffffff821115620002e957620002e862000247565b5b620002f48262000236565b9050602081019050919050565b60005b838110156200032157808201518184015260208101905062000304565b8381111562000331576000848401525b50505050565b60006200034e6200034884620002cb565b620002ac565b9050828152602081018484840111156200036d576200036c62000231565b5b6200037a84828562000301565b509392505050565b600082601f8301126200039a57620003996200022c565b5b8151620003ac84826020860162000337565b91505092915050565b60008060408385031215620003cf57620003ce62000222565b5b600083015167ffffffffffffffff811115620003f057620003ef62000227565b5b620003fe8582860162000382565b925050602083015167ffffffffffffffff81111562000422576200042162000227565b5b620004308582860162000382565b9150509250929050565b7f4e487b7100000000000000000000000000000000000000000000000000000000600052602260045260246000fd5b600060028204905060018216806200048257607f821691505b602082108114156200049957620004986200043a565b5b50919050565b6130f780620004af6000396000f3fe608060405234801561001057600080fd5b50600436106101215760003560e01c806382de8fe9116100ad578063c1e0372811610071578063c1e0372814610306578063c32bb6e414610336578063c87b56dd14610352578063e985e9c514610382578063f2fde38b146103b257610121565b806382de8fe9146102625780638da5cb5b1461029257806395d89b41146102b0578063a22cb465146102ce578063b88d4fde146102ea57610121565b806323b872dd116100f457806323b872dd146101c057806342842e0e146101dc5780636352211e146101f857806370a0823114610228578063715018a61461025857610121565b806301ffc9a71461012657806306fdde0314610156578063081812fc14610174578063095ea7b3146101a4575b600080fd5b610140600480360381019061013b9190611d7d565b6103ce565b60405161014d9190611dc5565b60405180910390f35b61015e6104b0565b60405161016b9190611e79565b60405180910390f35b61018e60048036038101906101899190611ed1565b610542565b60405161019b9190611f3f565b60405180910390f35b6101be60048036038101906101b99190611f86565b6105c7565b005b6101da60048036038101906101d59190611fc6565b6106df565b005b6101f660048036038101906101f19190611fc6565b61073f565b005b610212600480360381019061020d9190611ed1565b61075f565b60405161021f9190611f3f565b60405180910390f35b610242600480360381019061023d9190612019565b610811565b60405161024f9190612055565b60405180910390f35b6102606108c9565b005b61027c60048036038101906102779190612019565b610951565b604051610289919061212e565b60405180910390f35b61029a610aa7565b6040516102a79190611f3f565b60405180910390f35b6102b8610ad1565b6040516102c59190611e79565b60405180910390f35b6102e860048036038101906102e3919061217c565b610b63565b005b61030460048036038101906102ff91906122f1565b610b79565b005b610320600480360381019061031b9190611ed1565b610bdb565b60405161032d91906123e5565b60405180910390f35b610350600480360381019061034b919061242c565b610c7c565b005b61036c60048036038101906103679190611ed1565b610deb565b6040516103799190611e79565b60405180910390f35b61039c60048036038101906103979190612493565b610e92565b6040516103a99190611dc5565b60405180910390f35b6103cc60048036038101906103c79190612019565b610f26565b005b60007f80ac58cd000000000000000000000000000000000000000000000000000000007bffffffffffffffffffffffffffffffffffffffffffffffffffffffff1916827bffffffffffffffffffffffffffffffffffffffffffffffffffffffff1916148061049957507f5b5e139f000000000000000000000000000000000000000000000000000000007bffffffffffffffffffffffffffffffffffffffffffffffffffffffff1916827bffffffffffffffffffffffffffffffffffffffffffffffffffffffff1916145b806104a957506104a88261101e565b5b9050919050565b6060600080546104bf90612502565b80601f01602080910402602001604051908101604052809291908181526020018280546104eb90612502565b80156105385780601f1061050d57610100808354040283529160200191610538565b820191906000526020600020905b81548152906001019060200180831161051b57829003601f168201915b5050505050905090565b600061054d82611088565b61058c576040517f08c379a0000000000000000000000000000000000000000000000000000000008152600401610583906125a6565b60405180910390fd5b6004600083815260200190815260200160002060009054906101000a900473ffffffffffffffffffffffffffffffffffffffff169050919050565b60006105d28261075f565b90508073ffffffffffffffffffffffffffffffffffffffff168373ffffffffffffffffffffffffffffffffffffffff161415610643576040517f08c379a000000000000000000000000000000000000000000000000000000000815260040161063a90612638565b60405180910390fd5b8073ffffffffffffffffffffffffffffffffffffffff166106626110f4565b73ffffffffffffffffffffffffffffffffffffffff16148061069157506106908161068b6110f4565b610e92565b5b6106d0576040517f08c379a00000000000000000000000000000000000000000000000000000000081526004016106c7906126ca565b60405180910390fd5b6106da83836110fc565b505050565b6106f06106ea6110f4565b826111b5565b61072f576040517f08c379a00000000000000000000000000000000000000000000000000000000081526004016107269061275c565b60405180910390fd5b61073a838383611293565b505050565b61075a83838360405180602001604052806000815250610b79565b505050565b6000806002600084815260200190815260200160002060009054906101000a900473ffffffffffffffffffffffffffffffffffffffff169050600073ffffffffffffffffffffffffffffffffffffffff168173ffffffffffffffffffffffffffffffffffffffff161415610808576040517f08c379a00000000000000000000000000000000000000000000000000000000081526004016107ff906127ee565b60405180910390fd5b80915050919050565b60008073ffffffffffffffffffffffffffffffffffffffff168273ffffffffffffffffffffffffffffffffffffffff161415610882576040517f08c379a000000000000000000000000000000000000000000000000000000000815260040161087990612880565b60405180910390fd5b600360008373ffffffffffffffffffffffffffffffffffffffff1673ffffffffffffffffffffffffffffffffffffffff168152602001908152602001600020549050919050565b6108d16110f4565b73ffffffffffffffffffffffffffffffffffffffff166108ef610aa7565b73ffffffffffffffffffffffffffffffffffffffff1614610945576040517f08c379a000000000000000000000000000000000000000000000000000000000815260040161093c906128ec565b60405180910390fd5b61094f60006114ef565b565b6060600061095e83610811565b905060008114156109bb57600067ffffffffffffffff811115610984576109836121c6565b5b6040519080825280602002602001820160405280156109b25781602001602082028036833780820191505090505b50915050610aa2565b60008167ffffffffffffffff8111156109d7576109d66121c6565b5b604051908082528060200260200182016040528015610a055781602001602082028036833780820191505090505b509050600060075490506000805b82811015610a99578673ffffffffffffffffffffffffffffffffffffffff16610a3b8261075f565b73ffffffffffffffffffffffffffffffffffffffff161415610a865780848381518110610a6b57610a6a61290c565b5b6020026020010181815250508180610a829061296a565b9250505b8080610a919061296a565b915050610a13565b83955050505050505b919050565b6000600660009054906101000a900473ffffffffffffffffffffffffffffffffffffffff16905090565b606060018054610ae090612502565b80601f0160208091040260200160405190810160405280929190818152602001828054610b0c90612502565b8015610b595780601f10610b2e57610100808354040283529160200191610b59565b820191906000526020600020905b815481529060010190602001808311610b3c57829003601f168201915b5050505050905090565b610b75610b6e6110f4565b83836115b5565b5050565b610b8a610b846110f4565b836111b5565b610bc9576040517f08c379a0000000000000000000000000000000000000000000000000000000008152600401610bc09061275c565b60405180910390fd5b610bd584848484611722565b50505050565b610be3611cdd565b600860008381526020019081526020016000206040518060800160405290816000820160009054906101000a900460ff1660ff1660ff1681526020016000820160019054906101000a900460ff1660ff1660ff1681526020016000820160029054906101000a900460ff1660ff1660ff1681526020016000820160039054906101000a900460ff1660ff1660ff16815250509050919050565b610c846110f4565b73ffffffffffffffffffffffffffffffffffffffff16610ca2610aa7565b73ffffffffffffffffffffffffffffffffffffffff1614610cf8576040517f08c379a0000000000000000000000000000000000000000000000000000000008152600401610cef906128ec565b60405180910390fd5b610d043360075461177e565b60405180608001604052808560ff1681526020018460ff1681526020018360ff1681526020018260ff1681525060086000600754815260200190815260200160002060008201518160000160006101000a81548160ff021916908360ff16021790555060208201518160000160016101000a81548160ff021916908360ff16021790555060408201518160000160026101000a81548160ff021916908360ff16021790555060608201518160000160036101000a81548160ff021916908360ff16021790555090505060076000815480929190610de09061296a565b919050555050505050565b6060610df682611088565b610e35576040517f08c379a0000000000000000000000000000000000000000000000000000000008152600401610e2c90612a25565b60405180910390fd5b6000610e3f61179c565b90506000815111610e5f5760405180602001604052806000815250610e8a565b80610e69846117b3565b604051602001610e7a929190612a81565b6040516020818303038152906040525b915050919050565b6000600560008473ffffffffffffffffffffffffffffffffffffffff1673ffffffffffffffffffffffffffffffffffffffff16815260200190815260200160002060008373ffffffffffffffffffffffffffffffffffffffff1673ffffffffffffffffffffffffffffffffffffffff16815260200190815260200160002060009054906101000a900460ff16905092915050565b610f2e6110f4565b73ffffffffffffffffffffffffffffffffffffffff16610f4c610aa7565b73ffffffffffffffffffffffffffffffffffffffff1614610fa2576040517f08c379a0000000000000000000000000000000000000000000000000000000008152600401610f99906128ec565b60405180910390fd5b600073ffffffffffffffffffffffffffffffffffffffff168173ffffffffffffffffffffffffffffffffffffffff161415611012576040517f08c379a000000000000000000000000000000000000000000000000000000000815260040161100990612b17565b60405180910390fd5b61101b816114ef565b50565b60007f01ffc9a7000000000000000000000000000000000000000000000000000000007bffffffffffffffffffffffffffffffffffffffffffffffffffffffff1916827bffffffffffffffffffffffffffffffffffffffffffffffffffffffff1916149050919050565b60008073ffffffffffffffffffffffffffffffffffffffff166002600084815260200190815260200160002060009054906101000a900473ffffffffffffffffffffffffffffffffffffffff1673ffffffffffffffffffffffffffffffffffffffff1614159050919050565b600033905090565b816004600083815260200190815260200160002060006101000a81548173ffffffffffffffffffffffffffffffffffffffff021916908373ffffffffffffffffffffffffffffffffffffffff160217905550808273ffffffffffffffffffffffffffffffffffffffff1661116f8361075f565b73ffffffffffffffffffffffffffffffffffffffff167f8c5be1e5ebec7d5bd14f71427d1e84f3dd0314c0f7b2291e5b200ac8c7c3b92560405160405180910390a45050565b60006111c082611088565b6111ff576040517f08c379a00000000000000000000000000000000000000000000000000000000081526004016111f690612ba9565b60405180910390fd5b600061120a8361075f565b90508073ffffffffffffffffffffffffffffffffffffffff168473ffffffffffffffffffffffffffffffffffffffff16148061127957508373ffffffffffffffffffffffffffffffffffffffff1661126184610542565b73ffffffffffffffffffffffffffffffffffffffff16145b8061128a57506112898185610e92565b5b91505092915050565b8273ffffffffffffffffffffffffffffffffffffffff166112b38261075f565b73ffffffffffffffffffffffffffffffffffffffff1614611309576040517f08c379a000000000000000000000000000000000000000000000000000000000815260040161130090612c3b565b60405180910390fd5b600073ffffffffffffffffffffffffffffffffffffffff168273ffffffffffffffffffffffffffffffffffffffff161415611379576040517f08c379a000000000000000000000000000000000000000000000000000000000815260040161137090612ccd565b60405180910390fd5b611384838383611914565b61138f6000826110fc565b6001600360008573ffffffffffffffffffffffffffffffffffffffff1673ffffffffffffffffffffffffffffffffffffffff16815260200190815260200160002060008282546113df9190612ced565b925050819055506001600360008473ffffffffffffffffffffffffffffffffffffffff1673ffffffffffffffffffffffffffffffffffffffff16815260200190815260200160002060008282546114369190612d21565b92505081905550816002600083815260200190815260200160002060006101000a81548173ffffffffffffffffffffffffffffffffffffffff021916908373ffffffffffffffffffffffffffffffffffffffff160217905550808273ffffffffffffffffffffffffffffffffffffffff168473ffffffffffffffffffffffffffffffffffffffff167fddf252ad1be2c89b69c2b068fc378daa952ba7f163c4a11628f55a4df523b3ef60405160405180910390a4505050565b6000600660009054906101000a900473ffffffffffffffffffffffffffffffffffffffff16905081600660006101000a81548173ffffffffffffffffffffffffffffffffffffffff021916908373ffffffffffffffffffffffffffffffffffffffff1602179055508173ffffffffffffffffffffffffffffffffffffffff168173ffffffffffffffffffffffffffffffffffffffff167f8be0079c531659141344cd1fd0a4f28419497f9722a3daafe3b4186f6b6457e060405160405180910390a35050565b8173ffffffffffffffffffffffffffffffffffffffff168373ffffffffffffffffffffffffffffffffffffffff161415611624576040517f08c379a000000000000000000000000000000000000000000000000000000000815260040161161b90612dc3565b60405180910390fd5b80600560008573ffffffffffffffffffffffffffffffffffffffff1673ffffffffffffffffffffffffffffffffffffffff16815260200190815260200160002060008473ffffffffffffffffffffffffffffffffffffffff1673ffffffffffffffffffffffffffffffffffffffff16815260200190815260200160002060006101000a81548160ff0219169083151502179055508173ffffffffffffffffffffffffffffffffffffffff168373ffffffffffffffffffffffffffffffffffffffff167f17307eab39ab6107e8899845ad3d59bd9653f200f220920489ca2b5937696c31836040516117159190611dc5565b60405180910390a3505050565b61172d848484611293565b61173984848484611919565b611778576040517f08c379a000000000000000000000000000000000000000000000000000000000815260040161176f90612e55565b60405180910390fd5b50505050565b611798828260405180602001604052806000815250611aa1565b5050565b606060405180602001604052806000815250905090565b606060008214156117fb576040518060400160405280600181526020017f3000000000000000000000000000000000000000000000000000000000000000815250905061190f565b600082905060005b6000821461182d5780806118169061296a565b915050600a826118269190612ea4565b9150611803565b60008167ffffffffffffffff811115611849576118486121c6565b5b6040519080825280601f01601f19166020018201604052801561187b5781602001600182028036833780820191505090505b5090505b60008514611908576001826118949190612ced565b9150600a856118a39190612ed5565b60306118af9190612d21565b60f81b8183815181106118c5576118c461290c565b5b60200101907effffffffffffffffffffffffffffffffffffffffffffffffffffffffffffff1916908160001a905350600a856119019190612ea4565b945061187f565b8093505050505b919050565b505050565b600061193a8473ffffffffffffffffffffffffffffffffffffffff16611afc565b15611a94578373ffffffffffffffffffffffffffffffffffffffff1663150b7a026119636110f4565b8786866040518563ffffffff1660e01b81526004016119859493929190612f5b565b6020604051808303816000875af19250505080156119c157506040513d601f19601f820116820180604052508101906119be9190612fbc565b60015b611a44573d80600081146119f1576040519150601f19603f3d011682016040523d82523d6000602084013e6119f6565b606091505b50600081511415611a3c576040517f08c379a0000000000000000000000000000000000000000000000000000000008152600401611a3390612e55565b60405180910390fd5b805181602001fd5b63150b7a0260e01b7bffffffffffffffffffffffffffffffffffffffffffffffffffffffff1916817bffffffffffffffffffffffffffffffffffffffffffffffffffffffff191614915050611a99565b600190505b949350505050565b611aab8383611b0f565b611ab86000848484611919565b611af7576040517f08c379a0000000000000000000000000000000000000000000000000000000008152600401611aee90612e55565b60405180910390fd5b505050565b600080823b905060008111915050919050565b600073ffffffffffffffffffffffffffffffffffffffff168273ffffffffffffffffffffffffffffffffffffffff161415611b7f576040517f08c379a0000000000000000000000000000000000000000000000000000000008152600401611b7690613035565b60405180910390fd5b611b8881611088565b15611bc8576040517f08c379a0000000000000000000000000000000000000000000000000000000008152600401611bbf906130a1565b60405180910390fd5b611bd460008383611914565b6001600360008473ffffffffffffffffffffffffffffffffffffffff1673ffffffffffffffffffffffffffffffffffffffff1681526020019081526020016000206000828254611c249190612d21565b92505081905550816002600083815260200190815260200160002060006101000a81548173ffffffffffffffffffffffffffffffffffffffff021916908373ffffffffffffffffffffffffffffffffffffffff160217905550808273ffffffffffffffffffffffffffffffffffffffff16600073ffffffffffffffffffffffffffffffffffffffff167fddf252ad1be2c89b69c2b068fc378daa952ba7f163c4a11628f55a4df523b3ef60405160405180910390a45050565b6040518060800160405280600060ff168152602001600060ff168152602001600060ff168152602001600060ff1681525090565b6000604051905090565b600080fd5b600080fd5b60007fffffffff0000000000000000000000000000000000000000000000000000000082169050919050565b611d5a81611d25565b8114611d6557600080fd5b50565b600081359050611d7781611d51565b92915050565b600060208284031215611d9357611d92611d1b565b5b6000611da184828501611d68565b91505092915050565b60008115159050919050565b611dbf81611daa565b82525050565b6000602082019050611dda6000830184611db6565b92915050565b600081519050919050565b600082825260208201905092915050565b60005b83811015611e1a578082015181840152602081019050611dff565b83811115611e29576000848401525b50505050565b6000601f19601f8301169050919050565b6000611e4b82611de0565b611e558185611deb565b9350611e65818560208601611dfc565b611e6e81611e2f565b840191505092915050565b60006020820190508181036000830152611e938184611e40565b905092915050565b6000819050919050565b611eae81611e9b565b8114611eb957600080fd5b50565b600081359050611ecb81611ea5565b92915050565b600060208284031215611ee757611ee6611d1b565b5b6000611ef584828501611ebc565b91505092915050565b600073ffffffffffffffffffffffffffffffffffffffff82169050919050565b6000611f2982611efe565b9050919050565b611f3981611f1e565b82525050565b6000602082019050611f546000830184611f30565b92915050565b611f6381611f1e565b8114611f6e57600080fd5b50565b600081359050611f8081611f5a565b92915050565b60008060408385031215611f9d57611f9c611d1b565b5b6000611fab85828601611f71565b9250506020611fbc85828601611ebc565b9150509250929050565b600080600060608486031215611fdf57611fde611d1b565b5b6000611fed86828701611f71565b9350506020611ffe86828701611f71565b925050604061200f86828701611ebc565b9150509250925092565b60006020828403121561202f5761202e611d1b565b5b600061203d84828501611f71565b91505092915050565b61204f81611e9b565b82525050565b600060208201905061206a6000830184612046565b92915050565b600081519050919050565b600082825260208201905092915050565b6000819050602082019050919050565b6120a581611e9b565b82525050565b60006120b7838361209c565b60208301905092915050565b6000602082019050919050565b60006120db82612070565b6120e5818561207b565b93506120f08361208c565b8060005b8381101561212157815161210888826120ab565b9750612113836120c3565b9250506001810190506120f4565b5085935050505092915050565b6000602082019050818103600083015261214881846120d0565b905092915050565b61215981611daa565b811461216457600080fd5b50565b60008135905061217681612150565b92915050565b6000806040838503121561219357612192611d1b565b5b60006121a185828601611f71565b92505060206121b285828601612167565b9150509250929050565b600080fd5b600080fd5b7f4e487b7100000000000000000000000000000000000000000000000000000000600052604160045260246000fd5b6121fe82611e2f565b810181811067ffffffffffffffff8211171561221d5761221c6121c6565b5b80604052505050565b6000612230611d11565b905061223c82826121f5565b919050565b600067ffffffffffffffff82111561225c5761225b6121c6565b5b61226582611e2f565b9050602081019050919050565b82818337600083830152505050565b600061229461228f84612241565b612226565b9050828152602081018484840111156122b0576122af6121c1565b5b6122bb848285612272565b509392505050565b600082601f8301126122d8576122d76121bc565b5b81356122e8848260208601612281565b91505092915050565b6000806000806080858703121561230b5761230a611d1b565b5b600061231987828801611f71565b945050602061232a87828801611f71565b935050604061233b87828801611ebc565b925050606085013567ffffffffffffffff81111561235c5761235b611d20565b5b612368878288016122c3565b91505092959194509250565b600060ff82169050919050565b61238a81612374565b82525050565b6080820160008201516123a66000850182612381565b5060208201516123b96020850182612381565b5060408201516123cc6040850182612381565b5060608201516123df6060850182612381565b50505050565b60006080820190506123fa6000830184612390565b92915050565b61240981612374565b811461241457600080fd5b50565b60008135905061242681612400565b92915050565b6000806000806080858703121561244657612445611d1b565b5b600061245487828801612417565b945050602061246587828801612417565b935050604061247687828801612417565b925050606061248787828801612417565b91505092959194509250565b600080604083850312156124aa576124a9611d1b565b5b60006124b885828601611f71565b92505060206124c985828601611f71565b9150509250929050565b7f4e487b7100000000000000000000000000000000000000000000000000000000600052602260045260246000fd5b6000600282049050600182168061251a57607f821691505b6020821081141561252e5761252d6124d3565b5b50919050565b7f4552433732313a20617070726f76656420717565727920666f72206e6f6e657860008201527f697374656e7420746f6b656e0000000000000000000000000000000000000000602082015250565b6000612590602c83611deb565b915061259b82612534565b604082019050919050565b600060208201905081810360008301526125bf81612583565b9050919050565b7f4552433732313a20617070726f76616c20746f2063757272656e74206f776e6560008201527f7200000000000000000000000000000000000000000000000000000000000000602082015250565b6000612622602183611deb565b915061262d826125c6565b604082019050919050565b6000602082019050818103600083015261265181612615565b9050919050565b7f4552433732313a20617070726f76652063616c6c6572206973206e6f74206f7760008201527f6e6572206e6f7220617070726f76656420666f7220616c6c0000000000000000602082015250565b60006126b4603883611deb565b91506126bf82612658565b604082019050919050565b600060208201905081810360008301526126e3816126a7565b9050919050565b7f4552433732313a207472616e736665722063616c6c6572206973206e6f74206f60008201527f776e6572206e6f7220617070726f766564000000000000000000000000000000602082015250565b6000612746603183611deb565b9150612751826126ea565b604082019050919050565b6000602082019050818103600083015261277581612739565b9050919050565b7f4552433732313a206f776e657220717565727920666f72206e6f6e657869737460008201527f656e7420746f6b656e0000000000000000000000000000000000000000000000602082015250565b60006127d8602983611deb565b91506127e38261277c565b604082019050919050565b60006020820190508181036000830152612807816127cb565b9050919050565b7f4552433732313a2062616c616e636520717565727920666f7220746865207a6560008201527f726f206164647265737300000000000000000000000000000000000000000000602082015250565b600061286a602a83611deb565b91506128758261280e565b604082019050919050565b600060208201905081810360008301526128998161285d565b9050919050565b7f4f776e61626c653a2063616c6c6572206973206e6f7420746865206f776e6572600082015250565b60006128d6602083611deb565b91506128e1826128a0565b602082019050919050565b60006020820190508181036000830152612905816128c9565b9050919050565b7f4e487b7100000000000000000000000000000000000000000000000000000000600052603260045260246000fd5b7f4e487b7100000000000000000000000000000000000000000000000000000000600052601160045260246000fd5b600061297582611e9b565b91507fffffffffffffffffffffffffffffffffffffffffffffffffffffffffffffffff8214156129a8576129a761293b565b5b600182019050919050565b7f4552433732314d657461646174613a2055524920717565727920666f72206e6f60008201527f6e6578697374656e7420746f6b656e0000000000000000000000000000000000602082015250565b6000612a0f602f83611deb565b9150612a1a826129b3565b604082019050919050565b60006020820190508181036000830152612a3e81612a02565b9050919050565b600081905092915050565b6000612a5b82611de0565b612a658185612a45565b9350612a75818560208601611dfc565b80840191505092915050565b6000612a8d8285612a50565b9150612a998284612a50565b91508190509392505050565b7f4f776e61626c653a206e6577206f776e657220697320746865207a65726f206160008201527f6464726573730000000000000000000000000000000000000000000000000000602082015250565b6000612b01602683611deb565b9150612b0c82612aa5565b604082019050919050565b60006020820190508181036000830152612b3081612af4565b9050919050565b7f4552433732313a206f70657261746f7220717565727920666f72206e6f6e657860008201527f697374656e7420746f6b656e0000000000000000000000000000000000000000602082015250565b6000612b93602c83611deb565b9150612b9e82612b37565b604082019050919050565b60006020820190508181036000830152612bc281612b86565b9050919050565b7f4552433732313a207472616e73666572206f6620746f6b656e2074686174206960008201527f73206e6f74206f776e0000000000000000000000000000000000000000000000602082015250565b6000612c25602983611deb565b9150612c3082612bc9565b604082019050919050565b60006020820190508181036000830152612c5481612c18565b9050919050565b7f4552433732313a207472616e7366657220746f20746865207a65726f2061646460008201527f7265737300000000000000000000000000000000000000000000000000000000602082015250565b6000612cb7602483611deb565b9150612cc282612c5b565b604082019050919050565b60006020820190508181036000830152612ce681612caa565b9050919050565b6000612cf882611e9b565b9150612d0383611e9b565b925082821015612d1657612d1561293b565b5b828203905092915050565b6000612d2c82611e9b565b9150612d3783611e9b565b9250827fffffffffffffffffffffffffffffffffffffffffffffffffffffffffffffffff03821115612d6c57612d6b61293b565b5b828201905092915050565b7f4552433732313a20617070726f766520746f2063616c6c657200000000000000600082015250565b6000612dad601983611deb565b9150612db882612d77565b602082019050919050565b60006020820190508181036000830152612ddc81612da0565b9050919050565b7f4552433732313a207472616e7366657220746f206e6f6e20455243373231526560008201527f63656976657220696d706c656d656e7465720000000000000000000000000000602082015250565b6000612e3f603283611deb565b9150612e4a82612de3565b604082019050919050565b60006020820190508181036000830152612e6e81612e32565b9050919050565b7f4e487b7100000000000000000000000000000000000000000000000000000000600052601260045260246000fd5b6000612eaf82611e9b565b9150612eba83611e9b565b925082612eca57612ec9612e75565b5b828204905092915050565b6000612ee082611e9b565b9150612eeb83611e9b565b925082612efb57612efa612e75565b5b828206905092915050565b600081519050919050565b600082825260208201905092915050565b6000612f2d82612f06565b612f378185612f11565b9350612f47818560208601611dfc565b612f5081611e2f565b840191505092915050565b6000608082019050612f706000830187611f30565b612f7d6020830186611f30565b612f8a6040830185612046565b8181036060830152612f9c8184612f22565b905095945050505050565b600081519050612fb681611d51565b92915050565b600060208284031215612fd257612fd1611d1b565b5b6000612fe084828501612fa7565b91505092915050565b7f4552433732313a206d696e7420746f20746865207a65726f2061646472657373600082015250565b600061301f602083611deb565b915061302a82612fe9565b602082019050919050565b6000602082019050818103600083015261304e81613012565b9050919050565b7f4552433732313a20746f6b656e20616c7265616479206d696e74656400000000600082015250565b600061308b601c83611deb565b915061309682613055565b602082019050919050565b600060208201905081810360008301526130ba8161307e565b905091905056fea26469706673582212209bc188e52ccd1b39c103e6dde509856d84334f34a82e15c065f167a45d61ca7264736f6c634300080a0033",
  "immutableReferences": {},
  "source": "pragma solidity 0.8.10;\n\nimport \"../node_modules/@openzeppelin/contracts/token/ERC721/ERC721.sol\";\nimport \"../node_modules/@openzeppelin/contracts/access/Ownable.sol\";\n\ncontract Token is ERC721, Ownable{\n\n\tstruct MoonDog {\n\t\tuint8 attack; // 0-255\n\t\tuint8 adorable;\n\t\tuint8 health;\n\t\tuint8 stamina;\n\n\t}\n\n\tuint256 nextId = 0;\n\tmapping( uint256 => MoonDog) private _tokenDetails;\n\n\tconstructor(string memory name, string memory symbol) ERC721(name, symbol){\n\n\t}\n\n\tfunction getAllTokensForUser(address user) public view returns(uint256[] memory){\n\t\tuint256 tokenCount = balanceOf(user);\n\t\tif(tokenCount == 0){\n\t\t\treturn new uint256[](0);\n\t\t}\n\t\telse{\n\t\t\tuint[] memory result = new uint256[](tokenCount);\n\t\t\tuint256 totalDogs = nextId;\n\t\t\tuint256 resultIndex = 0;\n\t\t\tuint256 i;\n\t\t\tfor(i = 0; i < totalDogs; i++){\n\t\t\t\tif(ownerOf(i) == user){\n\t\t\t\t\tresult[resultIndex] = i;\n\t\t\t\t\tresultIndex++;\n\t\t\t\t}\n\t\t\t}\n\t\t\treturn result;\n\t\t}\n\t}\n\n\tfunction getTokenDetails(uint256 tokenId) public view returns (MoonDog memory){\n\t\treturn _tokenDetails[tokenId];\n\t}\n\tfunction mint(uint8 attack, uint8 adorable, uint8 health, uint8 stamina) public onlyOwner{\n\t\t_safeMint(msg.sender, nextId);\n\t\t_tokenDetails[nextId] = MoonDog(attack, adorable, health, stamina);\n\t\tnextId++;\n\t}\n\n\n}",
  "sourcePath": "/Users/igormoscalets/moondoggies/contracts/Token.sol",
  "compiler": {
    "name": "solc",
    "version": "0.8.10+commit.fc410830.Emscripten.clang"
  },
  "schemaVersion": "3.4.3",
  "updatedAt": "2021-11-26T19:31:01.960Z",
  "networkType": "ethereum",
  "devdoc": {
    "kind": "dev",
    "methods": {
      "approve(address,uint256)": {
        "details": "See {IERC721-approve}."
      },
      "balanceOf(address)": {
        "details": "See {IERC721-balanceOf}."
      },
      "getApproved(uint256)": {
        "details": "See {IERC721-getApproved}."
      },
      "isApprovedForAll(address,address)": {
        "details": "See {IERC721-isApprovedForAll}."
      },
      "name()": {
        "details": "See {IERC721Metadata-name}."
      },
      "owner()": {
        "details": "Returns the address of the current owner."
      },
      "ownerOf(uint256)": {
        "details": "See {IERC721-ownerOf}."
      },
      "renounceOwnership()": {
        "details": "Leaves the contract without owner. It will not be possible to call `onlyOwner` functions anymore. Can only be called by the current owner. NOTE: Renouncing ownership will leave the contract without an owner, thereby removing any functionality that is only available to the owner."
      },
      "safeTransferFrom(address,address,uint256)": {
        "details": "See {IERC721-safeTransferFrom}."
      },
      "safeTransferFrom(address,address,uint256,bytes)": {
        "details": "See {IERC721-safeTransferFrom}."
      },
      "setApprovalForAll(address,bool)": {
        "details": "See {IERC721-setApprovalForAll}."
      },
      "supportsInterface(bytes4)": {
        "details": "See {IERC165-supportsInterface}."
      },
      "symbol()": {
        "details": "See {IERC721Metadata-symbol}."
      },
      "tokenURI(uint256)": {
        "details": "See {IERC721Metadata-tokenURI}."
      },
      "transferFrom(address,address,uint256)": {
        "details": "See {IERC721-transferFrom}."
      },
      "transferOwnership(address)": {
        "details": "Transfers ownership of the contract to a new account (`newOwner`). Can only be called by the current owner."
      }
    },
    "version": 1
  },
  "userdoc": {
    "kind": "user",
    "methods": {},
    "version": 1
  }
}