{
  "contractName": "Token",
  "abi": [
    {
      "inputs": [
        {
          "internalType": "string",
          "name": "name",
          "type": "string"
        },
        {
          "internalType": "string",
          "name": "symbol",
          "type": "string"
        }
      ],
      "stateMutability": "nonpayable",
      "type": "constructor"
    },
    {
      "anonymous": false,
      "inputs": [
        {
          "indexed": true,
          "internalType": "address",
          "name": "owner",
          "type": "address"
        },
        {
          "indexed": true,
          "internalType": "address",
          "name": "approved",
          "type": "address"
        },
        {
          "indexed": true,
          "internalType": "uint256",
          "name": "tokenId",
          "type": "uint256"
        }
      ],
      "name": "Approval",
      "type": "event"
    },
    {
      "anonymous": false,
      "inputs": [
        {
          "indexed": true,
          "internalType": "address",
          "name": "owner",
          "type": "address"
        },
        {
          "indexed": true,
          "internalType": "address",
          "name": "operator",
          "type": "address"
        },
        {
          "indexed": false,
          "internalType": "bool",
          "name": "approved",
          "type": "bool"
        }
      ],
      "name": "ApprovalForAll",
      "type": "event"
    },
    {
      "anonymous": false,
      "inputs": [
        {
          "indexed": true,
          "internalType": "address",
          "name": "previousOwner",
          "type": "address"
        },
        {
          "indexed": true,
          "internalType": "address",
          "name": "newOwner",
          "type": "address"
        }
      ],
      "name": "OwnershipTransferred",
      "type": "event"
    },
    {
      "anonymous": false,
      "inputs": [
        {
          "indexed": true,
          "internalType": "address",
          "name": "from",
          "type": "address"
        },
        {
          "indexed": true,
          "internalType": "address",
          "name": "to",
          "type": "address"
        },
        {
          "indexed": true,
          "internalType": "uint256",
          "name": "tokenId",
          "type": "uint256"
        }
      ],
      "name": "Transfer",
      "type": "event"
    },
    {
      "inputs": [
        {
          "internalType": "address",
          "name": "to",
          "type": "address"
        },
        {
          "internalType": "uint256",
          "name": "tokenId",
          "type": "uint256"
        }
      ],
      "name": "approve",
      "outputs": [],
      "stateMutability": "nonpayable",
      "type": "function"
    },
    {
      "inputs": [
        {
          "internalType": "address",
          "name": "owner",
          "type": "address"
        }
      ],
      "name": "balanceOf",
      "outputs": [
        {
          "internalType": "uint256",
          "name": "",
          "type": "uint256"
        }
      ],
      "stateMutability": "view",
      "type": "function",
      "constant": true
    },
    {
      "inputs": [
        {
          "internalType": "uint256",
          "name": "tokenId",
          "type": "uint256"
        }
      ],
      "name": "getApproved",
      "outputs": [
        {
          "internalType": "address",
          "name": "",
          "type": "address"
        }
      ],
      "stateMutability": "view",
      "type": "function",
      "constant": true
    },
    {
      "inputs": [
        {
          "internalType": "address",
          "name": "owner",
          "type": "address"
        },
        {
          "internalType": "address",
          "name": "operator",
          "type": "address"
        }
      ],
      "name": "isApprovedForAll",
      "outputs": [
        {
          "internalType": "bool",
          "name": "",
          "type": "bool"
        }
      ],
      "stateMutability": "view",
      "type": "function",
      "constant": true
    },
    {
      "inputs": [],
      "name": "name",
      "outputs": [
        {
          "internalType": "string",
          "name": "",
          "type": "string"
        }
      ],
      "stateMutability": "view",
      "type": "function",
      "constant": true
    },
    {
      "inputs": [],
      "name": "owner",
      "outputs": [
        {
          "internalType": "address",
          "name": "",
          "type": "address"
        }
      ],
      "stateMutability": "view",
      "type": "function",
      "constant": true
    },
    {
      "inputs": [
        {
          "internalType": "uint256",
          "name": "tokenId",
          "type": "uint256"
        }
      ],
      "name": "ownerOf",
      "outputs": [
        {
          "internalType": "address",
          "name": "",
          "type": "address"
        }
      ],
      "stateMutability": "view",
      "type": "function",
      "constant": true
    },
    {
      "inputs": [],
      "name": "renounceOwnership",
      "outputs": [],
      "stateMutability": "nonpayable",
      "type": "function"
    },
    {
      "inputs": [
        {
          "internalType": "address",
          "name": "from",
          "type": "address"
        },
        {
          "internalType": "address",
          "name": "to",
          "type": "address"
        },
        {
          "internalType": "uint256",
          "name": "tokenId",
          "type": "uint256"
        }
      ],
      "name": "safeTransferFrom",
      "outputs": [],
      "stateMutability": "nonpayable",
      "type": "function"
    },
    {
      "inputs": [
        {
          "internalType": "address",
          "name": "from",
          "type": "address"
        },
        {
          "internalType": "address",
          "name": "to",
          "type": "address"
        },
        {
          "internalType": "uint256",
          "name": "tokenId",
          "type": "uint256"
        },
        {
          "internalType": "bytes",
          "name": "_data",
          "type": "bytes"
        }
      ],
      "name": "safeTransferFrom",
      "outputs": [],
      "stateMutability": "nonpayable",
      "type": "function"
    },
    {
      "inputs": [
        {
          "internalType": "address",
          "name": "operator",
          "type": "address"
        },
        {
          "internalType": "bool",
          "name": "approved",
          "type": "bool"
        }
      ],
      "name": "setApprovalForAll",
      "outputs": [],
      "stateMutability": "nonpayable",
      "type": "function"
    },
    {
      "inputs": [
        {
          "internalType": "bytes4",
          "name": "interfaceId",
          "type": "bytes4"
        }
      ],
      "name": "supportsInterface",
      "outputs": [
        {
          "internalType": "bool",
          "name": "",
          "type": "bool"
        }
      ],
      "stateMutability": "view",
      "type": "function",
      "constant": true
    },
    {
      "inputs": [],
      "name": "symbol",
      "outputs": [
        {
          "internalType": "string",
          "name": "",
          "type": "string"
        }
      ],
      "stateMutability": "view",
      "type": "function",
      "constant": true
    },
    {
      "inputs": [
        {
          "internalType": "uint256",
          "name": "tokenId",
          "type": "uint256"
        }
      ],
      "name": "tokenURI",
      "outputs": [
        {
          "internalType": "string",
          "name": "",
          "type": "string"
        }
      ],
      "stateMutability": "view",
      "type": "function",
      "constant": true
    },
    {
      "inputs": [
        {
          "internalType": "address",
          "name": "from",
          "type": "address"
        },
        {
          "internalType": "address",
          "name": "to",
          "type": "address"
        },
        {
          "internalType": "uint256",
          "name": "tokenId",
          "type": "uint256"
        }
      ],
      "name": "transferFrom",
      "outputs": [],
      "stateMutability": "nonpayable",
      "type": "function"
    },
    {
      "inputs": [
        {
          "internalType": "address",
          "name": "newOwner",
          "type": "address"
        }
      ],
      "name": "transferOwnership",
      "outputs": [],
      "stateMutability": "nonpayable",
      "type": "function"
    },
    {
      "inputs": [
        {
          "internalType": "address",
          "name": "user",
          "type": "address"
        }
      ],
      "name": "getAllTokensForUser",
      "outputs": [
        {
          "internalType": "uint256[]",
          "name": "",
          "type": "uint256[]"
        }
      ],
      "stateMutability": "view",
      "type": "function",
      "constant": true
    },
    {
      "inputs": [
        {
          "internalType": "uint256",
          "name": "tokenId",
          "type": "uint256"
        }
      ],
      "name": "getTokenDetails",
      "outputs": [
        {
          "components": [
            {
              "internalType": "uint8",
              "name": "attack",
              "type": "uint8"
            },
            {
              "internalType": "uint8",
              "name": "adorable",
              "type": "uint8"
            },
            {
              "internalType": "uint8",
              "name": "health",
              "type": "uint8"
            },
            {
              "internalType": "uint8",
              "name": "stamina",
              "type": "uint8"
            },
            {
              "internalType": "uint8",
              "name": "stun",
              "type": "uint8"
            },
            {
              "internalType": "string",
              "name": "tokenURI",
              "type": "string"
            }
          ],
          "internalType": "struct Token.MoonDog",
          "name": "",
          "type": "tuple"
        }
      ],
      "stateMutability": "view",
      "type": "function",
      "constant": true
    },
    {
      "inputs": [
        {
          "internalType": "uint8",
          "name": "attack",
          "type": "uint8"
        },
        {
          "internalType": "uint8",
          "name": "adorable",
          "type": "uint8"
        },
        {
          "internalType": "uint8",
          "name": "health",
          "type": "uint8"
        },
        {
          "internalType": "uint8",
          "name": "stamina",
          "type": "uint8"
        },
        {
          "internalType": "uint8",
          "name": "stun",
          "type": "uint8"
        },
        {
          "internalType": "string",
          "name": "tokenURI",
          "type": "string"
        },
        {
          "internalType": "uint256",
          "name": "price",
          "type": "uint256"
        }
      ],
      "name": "mintExternal",
      "outputs": [],
      "stateMutability": "payable",
      "type": "function",
      "payable": true
    }
  ],
  "bytecode": "0x608060405260006007553480156200001657600080fd5b50604051620039933803806200399383398181016040528101906200003c9190620003b5565b818181600090805190602001906200005692919062000168565b5080600190805190602001906200006f92919062000168565b50505062000092620000866200009a60201b60201c565b620000a260201b60201c565b50506200049f565b600033905090565b6000600660009054906101000a900473ffffffffffffffffffffffffffffffffffffffff16905081600660006101000a81548173ffffffffffffffffffffffffffffffffffffffff021916908373ffffffffffffffffffffffffffffffffffffffff1602179055508173ffffffffffffffffffffffffffffffffffffffff168173ffffffffffffffffffffffffffffffffffffffff167f8be0079c531659141344cd1fd0a4f28419497f9722a3daafe3b4186f6b6457e060405160405180910390a35050565b828054620001769062000469565b90600052602060002090601f0160209004810192826200019a5760008555620001e6565b82601f10620001b557805160ff1916838001178555620001e6565b82800160010185558215620001e6579182015b82811115620001e5578251825591602001919060010190620001c8565b5b509050620001f59190620001f9565b5090565b5b8082111562000214576000816000905550600101620001fa565b5090565b6000604051905090565b600080fd5b600080fd5b600080fd5b600080fd5b6000601f19601f8301169050919050565b7f4e487b7100000000000000000000000000000000000000000000000000000000600052604160045260246000fd5b620002818262000236565b810181811067ffffffffffffffff82111715620002a357620002a262000247565b5b80604052505050565b6000620002b862000218565b9050620002c6828262000276565b919050565b600067ffffffffffffffff821115620002e957620002e862000247565b5b620002f48262000236565b9050602081019050919050565b60005b838110156200032157808201518184015260208101905062000304565b8381111562000331576000848401525b50505050565b60006200034e6200034884620002cb565b620002ac565b9050828152602081018484840111156200036d576200036c62000231565b5b6200037a84828562000301565b509392505050565b600082601f8301126200039a57620003996200022c565b5b8151620003ac84826020860162000337565b91505092915050565b60008060408385031215620003cf57620003ce62000222565b5b600083015167ffffffffffffffff811115620003f057620003ef62000227565b5b620003fe8582860162000382565b925050602083015167ffffffffffffffff81111562000422576200042162000227565b5b620004308582860162000382565b9150509250929050565b7f4e487b7100000000000000000000000000000000000000000000000000000000600052602260045260246000fd5b600060028204905060018216806200048257607f821691505b602082108114156200049957620004986200043a565b5b50919050565b6134e480620004af6000396000f3fe6080604052600436106101145760003560e01c8063715018a6116100a0578063b88d4fde11610064578063b88d4fde146103a2578063c1e03728146103cb578063c87b56dd14610408578063e985e9c514610445578063f2fde38b1461048257610114565b8063715018a6146102cf57806382de8fe9146102e65780638da5cb5b1461032357806395d89b411461034e578063a22cb4651461037957610114565b8063152350a7116100e7578063152350a7146101e757806323b872dd1461020357806342842e0e1461022c5780636352211e1461025557806370a082311461029257610114565b806301ffc9a71461011957806306fdde0314610156578063081812fc14610181578063095ea7b3146101be575b600080fd5b34801561012557600080fd5b50610140600480360381019061013b9190611f5b565b6104ab565b60405161014d9190611fa3565b60405180910390f35b34801561016257600080fd5b5061016b61058d565b6040516101789190612057565b60405180910390f35b34801561018d57600080fd5b506101a860048036038101906101a391906120af565b61061f565b6040516101b5919061211d565b60405180910390f35b3480156101ca57600080fd5b506101e560048036038101906101e09190612164565b6106a4565b005b61020160048036038101906101fc9190612312565b6107bc565b005b34801561020f57600080fd5b5061022a600480360381019061022591906123d0565b610942565b005b34801561023857600080fd5b50610253600480360381019061024e91906123d0565b6109a2565b005b34801561026157600080fd5b5061027c600480360381019061027791906120af565b6109c2565b604051610289919061211d565b60405180910390f35b34801561029e57600080fd5b506102b960048036038101906102b49190612423565b610a74565b6040516102c6919061245f565b60405180910390f35b3480156102db57600080fd5b506102e4610b2c565b005b3480156102f257600080fd5b5061030d60048036038101906103089190612423565b610bb4565b60405161031a9190612538565b60405180910390f35b34801561032f57600080fd5b50610338610d0a565b604051610345919061211d565b60405180910390f35b34801561035a57600080fd5b50610363610d34565b6040516103709190612057565b60405180910390f35b34801561038557600080fd5b506103a0600480360381019061039b9190612586565b610dc6565b005b3480156103ae57600080fd5b506103c960048036038101906103c49190612667565b610ddc565b005b3480156103d757600080fd5b506103f260048036038101906103ed91906120af565b610e3e565b6040516103ff91906127cc565b60405180910390f35b34801561041457600080fd5b5061042f600480360381019061042a91906120af565b610f8e565b60405161043c9190612057565b60405180910390f35b34801561045157600080fd5b5061046c600480360381019061046791906127ee565b611035565b6040516104799190611fa3565b60405180910390f35b34801561048e57600080fd5b506104a960048036038101906104a49190612423565b6110c9565b005b60007f80ac58cd000000000000000000000000000000000000000000000000000000007bffffffffffffffffffffffffffffffffffffffffffffffffffffffff1916827bffffffffffffffffffffffffffffffffffffffffffffffffffffffff1916148061057657507f5b5e139f000000000000000000000000000000000000000000000000000000007bffffffffffffffffffffffffffffffffffffffffffffffffffffffff1916827bffffffffffffffffffffffffffffffffffffffffffffffffffffffff1916145b806105865750610585826111c1565b5b9050919050565b60606000805461059c9061285d565b80601f01602080910402602001604051908101604052809291908181526020018280546105c89061285d565b80156106155780601f106105ea57610100808354040283529160200191610615565b820191906000526020600020905b8154815290600101906020018083116105f857829003601f168201915b5050505050905090565b600061062a8261122b565b610669576040517f08c379a000000000000000000000000000000000000000000000000000000000815260040161066090612901565b60405180910390fd5b6004600083815260200190815260200160002060009054906101000a900473ffffffffffffffffffffffffffffffffffffffff169050919050565b60006106af826109c2565b90508073ffffffffffffffffffffffffffffffffffffffff168373ffffffffffffffffffffffffffffffffffffffff161415610720576040517f08c379a000000000000000000000000000000000000000000000000000000000815260040161071790612993565b60405180910390fd5b8073ffffffffffffffffffffffffffffffffffffffff1661073f611297565b73ffffffffffffffffffffffffffffffffffffffff16148061076e575061076d81610768611297565b611035565b5b6107ad576040517f08c379a00000000000000000000000000000000000000000000000000000000081526004016107a490612a25565b60405180910390fd5b6107b7838361129f565b505050565b803410156107ff576040517f08c379a00000000000000000000000000000000000000000000000000000000081526004016107f690612ab7565b60405180910390fd5b61080b33600754611358565b6040518060c001604052808860ff1681526020018760ff1681526020018660ff1681526020018560ff1681526020018460ff1681526020018381525060086000600754815260200190815260200160002060008201518160000160006101000a81548160ff021916908360ff16021790555060208201518160000160016101000a81548160ff021916908360ff16021790555060408201518160000160026101000a81548160ff021916908360ff16021790555060608201518160000160036101000a81548160ff021916908360ff16021790555060808201518160000160046101000a81548160ff021916908360ff16021790555060a082015181600101908051906020019061091d929190611e07565b509050506007600081548092919061093490612b06565b919050555050505050505050565b61095361094d611297565b82611526565b610992576040517f08c379a000000000000000000000000000000000000000000000000000000000815260040161098990612bc1565b60405180910390fd5b61099d838383611604565b505050565b6109bd83838360405180602001604052806000815250610ddc565b505050565b6000806002600084815260200190815260200160002060009054906101000a900473ffffffffffffffffffffffffffffffffffffffff169050600073ffffffffffffffffffffffffffffffffffffffff168173ffffffffffffffffffffffffffffffffffffffff161415610a6b576040517f08c379a0000000000000000000000000000000000000000000000000000000008152600401610a6290612c53565b60405180910390fd5b80915050919050565b60008073ffffffffffffffffffffffffffffffffffffffff168273ffffffffffffffffffffffffffffffffffffffff161415610ae5576040517f08c379a0000000000000000000000000000000000000000000000000000000008152600401610adc90612ce5565b60405180910390fd5b600360008373ffffffffffffffffffffffffffffffffffffffff1673ffffffffffffffffffffffffffffffffffffffff168152602001908152602001600020549050919050565b610b34611297565b73ffffffffffffffffffffffffffffffffffffffff16610b52610d0a565b73ffffffffffffffffffffffffffffffffffffffff1614610ba8576040517f08c379a0000000000000000000000000000000000000000000000000000000008152600401610b9f90612d51565b60405180910390fd5b610bb26000611860565b565b60606000610bc183610a74565b90506000811415610c1e57600067ffffffffffffffff811115610be757610be66121e7565b5b604051908082528060200260200182016040528015610c155781602001602082028036833780820191505090505b50915050610d05565b60008167ffffffffffffffff811115610c3a57610c396121e7565b5b604051908082528060200260200182016040528015610c685781602001602082028036833780820191505090505b509050600060075490506000805b82811015610cfc578673ffffffffffffffffffffffffffffffffffffffff16610c9e826109c2565b73ffffffffffffffffffffffffffffffffffffffff161415610ce95780848381518110610cce57610ccd612d71565b5b6020026020010181815250508180610ce590612b06565b9250505b8080610cf490612b06565b915050610c76565b83955050505050505b919050565b6000600660009054906101000a900473ffffffffffffffffffffffffffffffffffffffff16905090565b606060018054610d439061285d565b80601f0160208091040260200160405190810160405280929190818152602001828054610d6f9061285d565b8015610dbc5780601f10610d9157610100808354040283529160200191610dbc565b820191906000526020600020905b815481529060010190602001808311610d9f57829003601f168201915b5050505050905090565b610dd8610dd1611297565b8383611926565b5050565b610ded610de7611297565b83611526565b610e2c576040517f08c379a0000000000000000000000000000000000000000000000000000000008152600401610e2390612bc1565b60405180910390fd5b610e3884848484611a93565b50505050565b610e46611e8d565b600860008381526020019081526020016000206040518060c00160405290816000820160009054906101000a900460ff1660ff1660ff1681526020016000820160019054906101000a900460ff1660ff1660ff1681526020016000820160029054906101000a900460ff1660ff1660ff1681526020016000820160039054906101000a900460ff1660ff1660ff1681526020016000820160049054906101000a900460ff1660ff1660ff168152602001600182018054610f059061285d565b80601f0160208091040260200160405190810160405280929190818152602001828054610f319061285d565b8015610f7e5780601f10610f5357610100808354040283529160200191610f7e565b820191906000526020600020905b815481529060010190602001808311610f6157829003601f168201915b5050505050815250509050919050565b6060610f998261122b565b610fd8576040517f08c379a0000000000000000000000000000000000000000000000000000000008152600401610fcf90612e12565b60405180910390fd5b6000610fe2611aef565b90506000815111611002576040518060200160405280600081525061102d565b8061100c84611b06565b60405160200161101d929190612e6e565b6040516020818303038152906040525b915050919050565b6000600560008473ffffffffffffffffffffffffffffffffffffffff1673ffffffffffffffffffffffffffffffffffffffff16815260200190815260200160002060008373ffffffffffffffffffffffffffffffffffffffff1673ffffffffffffffffffffffffffffffffffffffff16815260200190815260200160002060009054906101000a900460ff16905092915050565b6110d1611297565b73ffffffffffffffffffffffffffffffffffffffff166110ef610d0a565b73ffffffffffffffffffffffffffffffffffffffff1614611145576040517f08c379a000000000000000000000000000000000000000000000000000000000815260040161113c90612d51565b60405180910390fd5b600073ffffffffffffffffffffffffffffffffffffffff168173ffffffffffffffffffffffffffffffffffffffff1614156111b5576040517f08c379a00000000000000000000000000000000000000000000000000000000081526004016111ac90612f04565b60405180910390fd5b6111be81611860565b50565b60007f01ffc9a7000000000000000000000000000000000000000000000000000000007bffffffffffffffffffffffffffffffffffffffffffffffffffffffff1916827bffffffffffffffffffffffffffffffffffffffffffffffffffffffff1916149050919050565b60008073ffffffffffffffffffffffffffffffffffffffff166002600084815260200190815260200160002060009054906101000a900473ffffffffffffffffffffffffffffffffffffffff1673ffffffffffffffffffffffffffffffffffffffff1614159050919050565b600033905090565b816004600083815260200190815260200160002060006101000a81548173ffffffffffffffffffffffffffffffffffffffff021916908373ffffffffffffffffffffffffffffffffffffffff160217905550808273ffffffffffffffffffffffffffffffffffffffff16611312836109c2565b73ffffffffffffffffffffffffffffffffffffffff167f8c5be1e5ebec7d5bd14f71427d1e84f3dd0314c0f7b2291e5b200ac8c7c3b92560405160405180910390a45050565b600073ffffffffffffffffffffffffffffffffffffffff168273ffffffffffffffffffffffffffffffffffffffff1614156113c8576040517f08c379a00000000000000000000000000000000000000000000000000000000081526004016113bf90612f70565b60405180910390fd5b6113d18161122b565b15611411576040517f08c379a000000000000000000000000000000000000000000000000000000000815260040161140890612fdc565b60405180910390fd5b61141d60008383611c67565b6001600360008473ffffffffffffffffffffffffffffffffffffffff1673ffffffffffffffffffffffffffffffffffffffff168152602001908152602001600020600082825461146d9190612ffc565b92505081905550816002600083815260200190815260200160002060006101000a81548173ffffffffffffffffffffffffffffffffffffffff021916908373ffffffffffffffffffffffffffffffffffffffff160217905550808273ffffffffffffffffffffffffffffffffffffffff16600073ffffffffffffffffffffffffffffffffffffffff167fddf252ad1be2c89b69c2b068fc378daa952ba7f163c4a11628f55a4df523b3ef60405160405180910390a45050565b60006115318261122b565b611570576040517f08c379a0000000000000000000000000000000000000000000000000000000008152600401611567906130c4565b60405180910390fd5b600061157b836109c2565b90508073ffffffffffffffffffffffffffffffffffffffff168473ffffffffffffffffffffffffffffffffffffffff1614806115ea57508373ffffffffffffffffffffffffffffffffffffffff166115d28461061f565b73ffffffffffffffffffffffffffffffffffffffff16145b806115fb57506115fa8185611035565b5b91505092915050565b8273ffffffffffffffffffffffffffffffffffffffff16611624826109c2565b73ffffffffffffffffffffffffffffffffffffffff161461167a576040517f08c379a000000000000000000000000000000000000000000000000000000000815260040161167190613156565b60405180910390fd5b600073ffffffffffffffffffffffffffffffffffffffff168273ffffffffffffffffffffffffffffffffffffffff1614156116ea576040517f08c379a00000000000000000000000000000000000000000000000000000000081526004016116e1906131e8565b60405180910390fd5b6116f5838383611c67565b61170060008261129f565b6001600360008573ffffffffffffffffffffffffffffffffffffffff1673ffffffffffffffffffffffffffffffffffffffff16815260200190815260200160002060008282546117509190613208565b925050819055506001600360008473ffffffffffffffffffffffffffffffffffffffff1673ffffffffffffffffffffffffffffffffffffffff16815260200190815260200160002060008282546117a79190612ffc565b92505081905550816002600083815260200190815260200160002060006101000a81548173ffffffffffffffffffffffffffffffffffffffff021916908373ffffffffffffffffffffffffffffffffffffffff160217905550808273ffffffffffffffffffffffffffffffffffffffff168473ffffffffffffffffffffffffffffffffffffffff167fddf252ad1be2c89b69c2b068fc378daa952ba7f163c4a11628f55a4df523b3ef60405160405180910390a4505050565b6000600660009054906101000a900473ffffffffffffffffffffffffffffffffffffffff16905081600660006101000a81548173ffffffffffffffffffffffffffffffffffffffff021916908373ffffffffffffffffffffffffffffffffffffffff1602179055508173ffffffffffffffffffffffffffffffffffffffff168173ffffffffffffffffffffffffffffffffffffffff167f8be0079c531659141344cd1fd0a4f28419497f9722a3daafe3b4186f6b6457e060405160405180910390a35050565b8173ffffffffffffffffffffffffffffffffffffffff168373ffffffffffffffffffffffffffffffffffffffff161415611995576040517f08c379a000000000000000000000000000000000000000000000000000000000815260040161198c90613288565b60405180910390fd5b80600560008573ffffffffffffffffffffffffffffffffffffffff1673ffffffffffffffffffffffffffffffffffffffff16815260200190815260200160002060008473ffffffffffffffffffffffffffffffffffffffff1673ffffffffffffffffffffffffffffffffffffffff16815260200190815260200160002060006101000a81548160ff0219169083151502179055508173ffffffffffffffffffffffffffffffffffffffff168373ffffffffffffffffffffffffffffffffffffffff167f17307eab39ab6107e8899845ad3d59bd9653f200f220920489ca2b5937696c3183604051611a869190611fa3565b60405180910390a3505050565b611a9e848484611604565b611aaa84848484611c6c565b611ae9576040517f08c379a0000000000000000000000000000000000000000000000000000000008152600401611ae09061331a565b60405180910390fd5b50505050565b606060405180602001604052806000815250905090565b60606000821415611b4e576040518060400160405280600181526020017f30000000000000000000000000000000000000000000000000000000000000008152509050611c62565b600082905060005b60008214611b80578080611b6990612b06565b915050600a82611b799190613369565b9150611b56565b60008167ffffffffffffffff811115611b9c57611b9b6121e7565b5b6040519080825280601f01601f191660200182016040528015611bce5781602001600182028036833780820191505090505b5090505b60008514611c5b57600182611be79190613208565b9150600a85611bf6919061339a565b6030611c029190612ffc565b60f81b818381518110611c1857611c17612d71565b5b60200101907effffffffffffffffffffffffffffffffffffffffffffffffffffffffffffff1916908160001a905350600a85611c549190613369565b9450611bd2565b8093505050505b919050565b505050565b6000611c8d8473ffffffffffffffffffffffffffffffffffffffff16611df4565b15611de7578373ffffffffffffffffffffffffffffffffffffffff1663150b7a02611cb6611297565b8786866040518563ffffffff1660e01b8152600401611cd89493929190613420565b6020604051808303816000875af1925050508015611d1457506040513d601f19601f82011682018060405250810190611d119190613481565b60015b611d97573d8060008114611d44576040519150601f19603f3d011682016040523d82523d6000602084013e611d49565b606091505b50600081511415611d8f576040517f08c379a0000000000000000000000000000000000000000000000000000000008152600401611d869061331a565b60405180910390fd5b805181602001fd5b63150b7a0260e01b7bffffffffffffffffffffffffffffffffffffffffffffffffffffffff1916817bffffffffffffffffffffffffffffffffffffffffffffffffffffffff191614915050611dec565b600190505b949350505050565b600080823b905060008111915050919050565b828054611e139061285d565b90600052602060002090601f016020900481019282611e355760008555611e7c565b82601f10611e4e57805160ff1916838001178555611e7c565b82800160010185558215611e7c579182015b82811115611e7b578251825591602001919060010190611e60565b5b509050611e899190611ed2565b5090565b6040518060c00160405280600060ff168152602001600060ff168152602001600060ff168152602001600060ff168152602001600060ff168152602001606081525090565b5b80821115611eeb576000816000905550600101611ed3565b5090565b6000604051905090565b600080fd5b600080fd5b60007fffffffff0000000000000000000000000000000000000000000000000000000082169050919050565b611f3881611f03565b8114611f4357600080fd5b50565b600081359050611f5581611f2f565b92915050565b600060208284031215611f7157611f70611ef9565b5b6000611f7f84828501611f46565b91505092915050565b60008115159050919050565b611f9d81611f88565b82525050565b6000602082019050611fb86000830184611f94565b92915050565b600081519050919050565b600082825260208201905092915050565b60005b83811015611ff8578082015181840152602081019050611fdd565b83811115612007576000848401525b50505050565b6000601f19601f8301169050919050565b600061202982611fbe565b6120338185611fc9565b9350612043818560208601611fda565b61204c8161200d565b840191505092915050565b60006020820190508181036000830152612071818461201e565b905092915050565b6000819050919050565b61208c81612079565b811461209757600080fd5b50565b6000813590506120a981612083565b92915050565b6000602082840312156120c5576120c4611ef9565b5b60006120d38482850161209a565b91505092915050565b600073ffffffffffffffffffffffffffffffffffffffff82169050919050565b6000612107826120dc565b9050919050565b612117816120fc565b82525050565b6000602082019050612132600083018461210e565b92915050565b612141816120fc565b811461214c57600080fd5b50565b60008135905061215e81612138565b92915050565b6000806040838503121561217b5761217a611ef9565b5b60006121898582860161214f565b925050602061219a8582860161209a565b9150509250929050565b600060ff82169050919050565b6121ba816121a4565b81146121c557600080fd5b50565b6000813590506121d7816121b1565b92915050565b600080fd5b600080fd5b7f4e487b7100000000000000000000000000000000000000000000000000000000600052604160045260246000fd5b61221f8261200d565b810181811067ffffffffffffffff8211171561223e5761223d6121e7565b5b80604052505050565b6000612251611eef565b905061225d8282612216565b919050565b600067ffffffffffffffff82111561227d5761227c6121e7565b5b6122868261200d565b9050602081019050919050565b82818337600083830152505050565b60006122b56122b084612262565b612247565b9050828152602081018484840111156122d1576122d06121e2565b5b6122dc848285612293565b509392505050565b600082601f8301126122f9576122f86121dd565b5b81356123098482602086016122a2565b91505092915050565b600080600080600080600060e0888a03121561233157612330611ef9565b5b600061233f8a828b016121c8565b97505060206123508a828b016121c8565b96505060406123618a828b016121c8565b95505060606123728a828b016121c8565b94505060806123838a828b016121c8565b93505060a088013567ffffffffffffffff8111156123a4576123a3611efe565b5b6123b08a828b016122e4565b92505060c06123c18a828b0161209a565b91505092959891949750929550565b6000806000606084860312156123e9576123e8611ef9565b5b60006123f78682870161214f565b93505060206124088682870161214f565b92505060406124198682870161209a565b9150509250925092565b60006020828403121561243957612438611ef9565b5b60006124478482850161214f565b91505092915050565b61245981612079565b82525050565b60006020820190506124746000830184612450565b92915050565b600081519050919050565b600082825260208201905092915050565b6000819050602082019050919050565b6124af81612079565b82525050565b60006124c183836124a6565b60208301905092915050565b6000602082019050919050565b60006124e58261247a565b6124ef8185612485565b93506124fa83612496565b8060005b8381101561252b57815161251288826124b5565b975061251d836124cd565b9250506001810190506124fe565b5085935050505092915050565b6000602082019050818103600083015261255281846124da565b905092915050565b61256381611f88565b811461256e57600080fd5b50565b6000813590506125808161255a565b92915050565b6000806040838503121561259d5761259c611ef9565b5b60006125ab8582860161214f565b92505060206125bc85828601612571565b9150509250929050565b600067ffffffffffffffff8211156125e1576125e06121e7565b5b6125ea8261200d565b9050602081019050919050565b600061260a612605846125c6565b612247565b905082815260208101848484011115612626576126256121e2565b5b612631848285612293565b509392505050565b600082601f83011261264e5761264d6121dd565b5b813561265e8482602086016125f7565b91505092915050565b6000806000806080858703121561268157612680611ef9565b5b600061268f8782880161214f565b94505060206126a08782880161214f565b93505060406126b18782880161209a565b925050606085013567ffffffffffffffff8111156126d2576126d1611efe565b5b6126de87828801612639565b91505092959194509250565b6126f3816121a4565b82525050565b600082825260208201905092915050565b600061271582611fbe565b61271f81856126f9565b935061272f818560208601611fda565b6127388161200d565b840191505092915050565b600060c08301600083015161275b60008601826126ea565b50602083015161276e60208601826126ea565b50604083015161278160408601826126ea565b50606083015161279460608601826126ea565b5060808301516127a760808601826126ea565b5060a083015184820360a08601526127bf828261270a565b9150508091505092915050565b600060208201905081810360008301526127e68184612743565b905092915050565b6000806040838503121561280557612804611ef9565b5b60006128138582860161214f565b92505060206128248582860161214f565b9150509250929050565b7f4e487b7100000000000000000000000000000000000000000000000000000000600052602260045260246000fd5b6000600282049050600182168061287557607f821691505b602082108114156128895761288861282e565b5b50919050565b7f4552433732313a20617070726f76656420717565727920666f72206e6f6e657860008201527f697374656e7420746f6b656e0000000000000000000000000000000000000000602082015250565b60006128eb602c83611fc9565b91506128f68261288f565b604082019050919050565b6000602082019050818103600083015261291a816128de565b9050919050565b7f4552433732313a20617070726f76616c20746f2063757272656e74206f776e6560008201527f7200000000000000000000000000000000000000000000000000000000000000602082015250565b600061297d602183611fc9565b915061298882612921565b604082019050919050565b600060208201905081810360008301526129ac81612970565b9050919050565b7f4552433732313a20617070726f76652063616c6c6572206973206e6f74206f7760008201527f6e6572206e6f7220617070726f76656420666f7220616c6c0000000000000000602082015250565b6000612a0f603883611fc9565b9150612a1a826129b3565b604082019050919050565b60006020820190508181036000830152612a3e81612a02565b9050919050565b7f45746865722073656e7420776974682074686973207472616e73616374696f6e60008201527f206973206e6f7420636f72726563740000000000000000000000000000000000602082015250565b6000612aa1602f83611fc9565b9150612aac82612a45565b604082019050919050565b60006020820190508181036000830152612ad081612a94565b9050919050565b7f4e487b7100000000000000000000000000000000000000000000000000000000600052601160045260246000fd5b6000612b1182612079565b91507fffffffffffffffffffffffffffffffffffffffffffffffffffffffffffffffff821415612b4457612b43612ad7565b5b600182019050919050565b7f4552433732313a207472616e736665722063616c6c6572206973206e6f74206f60008201527f776e6572206e6f7220617070726f766564000000000000000000000000000000602082015250565b6000612bab603183611fc9565b9150612bb682612b4f565b604082019050919050565b60006020820190508181036000830152612bda81612b9e565b9050919050565b7f4552433732313a206f776e657220717565727920666f72206e6f6e657869737460008201527f656e7420746f6b656e0000000000000000000000000000000000000000000000602082015250565b6000612c3d602983611fc9565b9150612c4882612be1565b604082019050919050565b60006020820190508181036000830152612c6c81612c30565b9050919050565b7f4552433732313a2062616c616e636520717565727920666f7220746865207a6560008201527f726f206164647265737300000000000000000000000000000000000000000000602082015250565b6000612ccf602a83611fc9565b9150612cda82612c73565b604082019050919050565b60006020820190508181036000830152612cfe81612cc2565b9050919050565b7f4f776e61626c653a2063616c6c6572206973206e6f7420746865206f776e6572600082015250565b6000612d3b602083611fc9565b9150612d4682612d05565b602082019050919050565b60006020820190508181036000830152612d6a81612d2e565b9050919050565b7f4e487b7100000000000000000000000000000000000000000000000000000000600052603260045260246000fd5b7f4552433732314d657461646174613a2055524920717565727920666f72206e6f60008201527f6e6578697374656e7420746f6b656e0000000000000000000000000000000000602082015250565b6000612dfc602f83611fc9565b9150612e0782612da0565b604082019050919050565b60006020820190508181036000830152612e2b81612def565b9050919050565b600081905092915050565b6000612e4882611fbe565b612e528185612e32565b9350612e62818560208601611fda565b80840191505092915050565b6000612e7a8285612e3d565b9150612e868284612e3d565b91508190509392505050565b7f4f776e61626c653a206e6577206f776e657220697320746865207a65726f206160008201527f6464726573730000000000000000000000000000000000000000000000000000602082015250565b6000612eee602683611fc9565b9150612ef982612e92565b604082019050919050565b60006020820190508181036000830152612f1d81612ee1565b9050919050565b7f4552433732313a206d696e7420746f20746865207a65726f2061646472657373600082015250565b6000612f5a602083611fc9565b9150612f6582612f24565b602082019050919050565b60006020820190508181036000830152612f8981612f4d565b9050919050565b7f4552433732313a20746f6b656e20616c7265616479206d696e74656400000000600082015250565b6000612fc6601c83611fc9565b9150612fd182612f90565b602082019050919050565b60006020820190508181036000830152612ff581612fb9565b9050919050565b600061300782612079565b915061301283612079565b9250827fffffffffffffffffffffffffffffffffffffffffffffffffffffffffffffffff0382111561304757613046612ad7565b5b828201905092915050565b7f4552433732313a206f70657261746f7220717565727920666f72206e6f6e657860008201527f697374656e7420746f6b656e0000000000000000000000000000000000000000602082015250565b60006130ae602c83611fc9565b91506130b982613052565b604082019050919050565b600060208201905081810360008301526130dd816130a1565b9050919050565b7f4552433732313a207472616e73666572206f6620746f6b656e2074686174206960008201527f73206e6f74206f776e0000000000000000000000000000000000000000000000602082015250565b6000613140602983611fc9565b915061314b826130e4565b604082019050919050565b6000602082019050818103600083015261316f81613133565b9050919050565b7f4552433732313a207472616e7366657220746f20746865207a65726f2061646460008201527f7265737300000000000000000000000000000000000000000000000000000000602082015250565b60006131d2602483611fc9565b91506131dd82613176565b604082019050919050565b60006020820190508181036000830152613201816131c5565b9050919050565b600061321382612079565b915061321e83612079565b92508282101561323157613230612ad7565b5b828203905092915050565b7f4552433732313a20617070726f766520746f2063616c6c657200000000000000600082015250565b6000613272601983611fc9565b915061327d8261323c565b602082019050919050565b600060208201905081810360008301526132a181613265565b9050919050565b7f4552433732313a207472616e7366657220746f206e6f6e20455243373231526560008201527f63656976657220696d706c656d656e7465720000000000000000000000000000602082015250565b6000613304603283611fc9565b915061330f826132a8565b604082019050919050565b60006020820190508181036000830152613333816132f7565b9050919050565b7f4e487b7100000000000000000000000000000000000000000000000000000000600052601260045260246000fd5b600061337482612079565b915061337f83612079565b92508261338f5761338e61333a565b5b828204905092915050565b60006133a582612079565b91506133b083612079565b9250826133c0576133bf61333a565b5b828206905092915050565b600081519050919050565b600082825260208201905092915050565b60006133f2826133cb565b6133fc81856133d6565b935061340c818560208601611fda565b6134158161200d565b840191505092915050565b6000608082019050613435600083018761210e565b613442602083018661210e565b61344f6040830185612450565b818103606083015261346181846133e7565b905095945050505050565b60008151905061347b81611f2f565b92915050565b60006020828403121561349757613496611ef9565b5b60006134a58482850161346c565b9150509291505056fea2646970667358221220cb771fdf2f786c810c7e2fcb2cced74ecd8cff9e1829eec68129f998c8a3a06364736f6c634300080a0033",
  "immutableReferences": {},
  "source": "pragma solidity 0.8.10;\n\nimport \"../node_modules/@openzeppelin/contracts/token/ERC721/ERC721.sol\";\nimport \"../node_modules/@openzeppelin/contracts/access/Ownable.sol\";\n\ncontract Token is ERC721, Ownable{\n\n\tstruct MoonDog {\n\t\tuint8 attack; // 0-255\n\t\tuint8 adorable;\n\t\tuint8 health;\n\t\tuint8 stamina;\n\t\tuint8 stun;\n\t\tstring tokenURI;\n\t}\n\n\tuint256 nextId = 0;\n\tmapping( uint256 => MoonDog) private _tokenDetails;\n\n\tconstructor(string memory name, string memory symbol) ERC721(name, symbol){\n\n\t}\n\n\tfunction getAllTokensForUser(address user) public view returns(uint256[] memory){\n\t\tuint256 tokenCount = balanceOf(user);\n\t\tif(tokenCount == 0){\n\t\t\treturn new uint256[](0);\n\t\t}\n\t\telse{\n\t\t\tuint[] memory result = new uint256[](tokenCount);\n\t\t\tuint256 totalDogs = nextId;\n\t\t\tuint256 resultIndex = 0;\n\t\t\tuint256 i;\n\t\t\tfor(i = 0; i < totalDogs; i++){\n\t\t\t\tif(ownerOf(i) == user){\n\t\t\t\t\tresult[resultIndex] = i;\n\t\t\t\t\tresultIndex++;\n\t\t\t\t}\n\t\t\t}\n\t\t\treturn result;\n\t\t}\n\t}\n\n\tfunction getTokenDetails(uint256 tokenId) public view returns (MoonDog memory){\n\t\treturn _tokenDetails[tokenId];\n\t}\n\n\n\tfunction mintExternal(uint8 attack, uint8 adorable, uint8 health, uint8 stamina, uint8 stun, string memory tokenURI, uint256 price) public virtual payable {\n\t\trequire(\n\t\t\tmsg.value >= price,\n\t\t\t\"Ether sent with this transaction is not correct\"\n\t\t);\n\n\t\t_mint(msg.sender, nextId);\n\t\t_tokenDetails[nextId] = MoonDog(attack, adorable, health, stamina, stun, tokenURI);\n\t\tnextId++;\n\t}\n\n\n}",
  "sourcePath": "/Users/igormoscalets/moondoggies/contracts/Token.sol",
  "compiler": {
    "name": "solc",
    "version": "0.8.10+commit.fc410830.Emscripten.clang"
  },
  "schemaVersion": "3.4.3",
  "updatedAt": "2021-11-29T00:09:16.727Z",
  "networkType": "ethereum",
  "devdoc": {
    "kind": "dev",
    "methods": {
      "approve(address,uint256)": {
        "details": "See {IERC721-approve}."
      },
      "balanceOf(address)": {
        "details": "See {IERC721-balanceOf}."
      },
      "getApproved(uint256)": {
        "details": "See {IERC721-getApproved}."
      },
      "isApprovedForAll(address,address)": {
        "details": "See {IERC721-isApprovedForAll}."
      },
      "name()": {
        "details": "See {IERC721Metadata-name}."
      },
      "owner()": {
        "details": "Returns the address of the current owner."
      },
      "ownerOf(uint256)": {
        "details": "See {IERC721-ownerOf}."
      },
      "renounceOwnership()": {
        "details": "Leaves the contract without owner. It will not be possible to call `onlyOwner` functions anymore. Can only be called by the current owner. NOTE: Renouncing ownership will leave the contract without an owner, thereby removing any functionality that is only available to the owner."
      },
      "safeTransferFrom(address,address,uint256)": {
        "details": "See {IERC721-safeTransferFrom}."
      },
      "safeTransferFrom(address,address,uint256,bytes)": {
        "details": "See {IERC721-safeTransferFrom}."
      },
      "setApprovalForAll(address,bool)": {
        "details": "See {IERC721-setApprovalForAll}."
      },
      "supportsInterface(bytes4)": {
        "details": "See {IERC165-supportsInterface}."
      },
      "symbol()": {
        "details": "See {IERC721Metadata-symbol}."
      },
      "tokenURI(uint256)": {
        "details": "See {IERC721Metadata-tokenURI}."
      },
      "transferFrom(address,address,uint256)": {
        "details": "See {IERC721-transferFrom}."
      },
      "transferOwnership(address)": {
        "details": "Transfers ownership of the contract to a new account (`newOwner`). Can only be called by the current owner."
      }
    },
    "version": 1
  },
  "userdoc": {
    "kind": "user",
    "methods": {},
    "version": 1
  }
}